:020000040800F2
:100000000000022015340008010A0008050A000853
:10001000090A00080D0A0008110A00080000000083
:10002000000000000000000000000000312B00086C
:10003000150A000800000000612B0008C52B00080D
:10004000653400086534000865340008653400082C
:10005000653400086534000865340008653400081C
:10006000653400086534000865340008653400080C
:1000700065340008653400086534000865340008FC
:1000800065340008653400086534000865340008EC
:1000900065340008653400086534000865340008DC
:1000A00065340008653400086534000865340008CC
:1000B000190A000865340008653400086534000832
:1000C00065340008653400086534000865340008AC
:1000D000653400086534000865340008653400089C
:1000E000653400086534000865340008653400088C
:1000F000653400086534000865340008653400087C
:10010000653400086534000865340008653400086B
:10011000653400086534000865340008653400085B
:10012000653400086534000865340008653400084B
:10013000653400080000000000000000653400087D
:10014000653400086534000865340008250A000895
:10015000653400086534000865340008653400081B
:10016000653400086534000865340008653400080B
:10017000653400086534000800000000000000003D
:08018000653400086534000835
:1001900010B5054C237833B9044B13B10448AFF3C1
:1001A00000800123237010BD0C000020000000001F
:1001B000B034000808B5034B1BB103490348AFF343
:1001C000008008BD0000000010000020B0340008CE
:1001D00053B94AB9002908BF00281CBF4FF0FF31AE
:1001E0004FF0FF3000F06EB9ADF1080C6DE904CEB0
:1001F00000F006F8DDF804E0DDE9022304B0704702
:100200002DE9F047089D04468C46002B40F0838082
:100210008A42174647D9B2FA82F242B1C2F12000AF
:1002200024FA00F09140974040EA010C94404FEAD4
:100230001748230CBCFBF8F61FFA87FE08FB16C113
:1002400043EA014306FB0EF1994209D9FB1806F176
:10025000FF3080F01981994240F21681023E3B4402
:100260005B1AA4B2B3FBF8F008FB103344EA034472
:1002700000FB0EFEA64509D93C1900F1FF3380F0C2
:100280000581A64540F2028102383C4440EA06401E
:10029000A4EB0E0400261DB1D4400023C5E90043A1
:1002A0003146BDE8F08702B9FFDEB2FA82F2002AD9
:1002B00050D1CB1B4FEA174E1FFA87F80126B3FB2C
:1002C000FEFC210C0EFB1C3341EA034108FB0CF33E
:1002D0008B4207D979180CF1FF3002D28B4200F221
:1002E000E9808446C91AA3B2B1FBFEF00EFB1011DF
:1002F00043EA014408FB00F8A04507D93C1900F186
:10030000FF3302D2A04500F2D9801846A4EB0804BE
:1003100040EA0C40BFE78B4209D9002D00F0B180C4
:100320000026C5E9000130463146BDE8F087B3FA42
:1003300083F6002E4AD18B4202D3824200F2B8806B
:10034000841A61EB030101208C46002DA8D0C5E979
:10035000004CA5E7C2F1200320FA03F6974001FA0A
:1003600002F04FEA174ED9403043030CB1FBFEF6C2
:100370001FFA87F80EFB161143EA014306FB08F14A
:10038000994204FA02F409D9FB1806F1FF3C80F007
:100390008D80994240F28A80023E3B445B1A81B2D2
:1003A000B3FBFEF00EFB103341EA034100FB08F300
:1003B0008B4207D9791800F1FF3C73D28B4271D977
:1003C00002383944CB1A40EA064678E7C6F1200CD9
:1003D00003FA06F422FA0CF31C4320FA0CF701FA94
:1003E00006F34FEA144E21FA0CF11F433B0CB1FB0C
:1003F000FEF91FFA84F80EFB191143EA014109FBCB
:1004000008FA8A4502FA06F200FA06F308D96118DA
:1004100009F1FF3048D28A4546D9A9F102092144A1
:10042000A1EB0A01BFB2B1FBFEF00EFB101147EACF
:10043000014700FB08F8B84507D9E71900F1FF317B
:100440002ED2B8452CD90238274440EA0940A7EB00
:100450000807A0FB02894F45C64649461AD317D064
:100460005DB1B3EB0E0267EB010707FA0CFCF2403B
:100470004CEA0202F740C5E9002700263146BDE8F4
:10048000F0872E4628460BE70646E9E61846FDE6C5
:100490004345E5D2B8EB020E69EB04010138DFE712
:1004A0000846D2E760468DE78146B9E7664675E7BC
:1004B00030464AE7ACF1020C394413E702383C44B9
:1004C00024E700BF704700BF70B5002394B0CDE9AA
:1004D0000A33CDE90C33CDE90433CDE906332149A4
:1004E00001930393086C204A40F080500864096C23
:1004F00001F08051019101990293136843F4804304
:100500001360136803F48043029301224FF4803395
:100510004FF480000224062108920993A8220723A1
:100520000F9008A8CDE91012029D0E941294139317
:1005300001F086FA08B172B6FEE703460F264FF4C3
:10054000A0554FF4805203A80521CDE9065204942A
:100550000593039601F090FC08B172B6FEE714B063
:1005600070BD00BF003802400070004008B501F0C7
:10057000D3FEFFF7A9FF00F01BF800F0AFF800F082
:1005800005F9054C2046802101F062FE4FF47A7097
:1005900001F0EEFEF6E700BF000802400368B3F189
:1005A000804F00D0704701F0D1BE00BF72B6FEE7A9
:1005B0002DE9F04100248AB0CDE90544CDE9074496
:1005C000414B009409941A6B404D414EDFF808816D
:1005D00042F004021A631A6B02F004020092009ABD
:1005E00001941A6B42F080021A631A6B02F08002C7
:1005F0000192019A02941A6B42F001021A631A6B7B
:1006000002F001020292029A03941A6B42F0020273
:100610001A631A6B02F002020392039A04941A6B93
:1006200042F008021A631B6B03F00803049322468E
:1006300028460621049B01F007FE224630464FF46F
:10064000A45101F001FE224640464FF4004101F062
:10065000FBFD012705A928460623CDE90537CDE98D
:10066000074401F0DFFC05A930464FF4A45305937D
:10067000CDE90674089401F0D5FC404605A94FF475
:1006800000430593CDE90674089401F0CBFC304695
:1006900005A94FF400630593CDE9064401F0C2FCBF
:1006A00005A904230B480593CDE9064401F0BAFCE3
:1006B0004FF4007305A92846CDE90644059301F0DF
:1006C000B1FC0AB0BDE8F0810038024000040240ED
:1006D00000080240000C0240000002400B480C4998
:1006E00008B50C4B03604FF480420023C0E902338D
:1006F000C0E90533C0E907334160026101F04AFEF9
:1007000000B908BDBDE80840FFF750BFE000002079
:10071000A08601000058004070B50268184B88B0F0
:1007200000249A42CDE90344CDE90544079401D061
:1007300008B070BD134D01942B6B134843F00203B6
:100740002B632B6B03F0020301934FF4406303937D
:1007500012220123049205930322042303A9CDE965
:100760000623019E01F05EFC02942B6C43F480038F
:100770002B642B6C03F480030293029B08B070BDC2
:100780000058004000380240000402400E480F4B61
:1007900010B54FF4802103604FF4827400230A22C5
:1007A000C0E90233C0E90433C0E90733C0E90933C3
:1007B00044608161C26201F0B1FE00B910BDBDE8C4
:1007C0001040FFF7F3BE00BF3401002000300140AD
:1007D000F0B50268224B89B000249A42CDE9034467
:1007E000CDE90544079401D009B0F0BD03F5843389
:1007F00000945A6C1B4842F480525A645A6C02F4BA
:1008000080520092009A01941A6B42F001021A631E
:100810001A6B02F001020192019A02941A6B42F0E3
:1008200002021A631B6B059403F002030293022772
:1008300010230326052503A9CDE90337029ACDE944
:10084000066501F0EFFB38230748049703A9CDE9BB
:1008500006650594039301F0E5FB09B0F0BD00BF08
:1008600000300140000002400004024000F57171B8
:10087000D0F8040402F0CCB9C1EBC10300EB830350
:10088000D0F80404D3F8082202F0F2B9C1EBC10396
:1008900000EB8303D0F804049A6C02F01DBA00BF89
:1008A000D0F8040402F0B6BAC16810B5044611B11C
:1008B00002290AD10121D4F8040402F08FFAD4F8F5
:1008C0000404BDE8104002F05DBAFFF76FFE01219D
:1008D000F1E700BF10B50446D0F8040402F082FA34
:1008E0002268D2F8003E43F00103C2F8003E236ABA
:1008F00023B1034A136943F00603136110BD00BF1F
:1009000000ED00E0D0F8040402F078BAD0F8040456
:1009100002F0A8BAD0F8040402F090BAD0F80404A7
:1009200002F0B4BAD0F8040402F0B2BA10B514461A
:10093000D0F8C4021A46234600F002FC032896BFF2
:10094000014B0320185C10BDC834000808B5D0F86E
:10095000C40200F077FC032896BF024B0320185C0A
:1009600008BD00BFC834000808B5D0F8C40200F0C4
:10097000ADFC032896BF024B0320185C08BD00BFE6
:10098000C83400080A06D0F8C43206D4C1EBC1014D
:1009900003EB810191F8FE01704701F07F01C1EB8B
:1009A000C10103EB810191F83E00704708B5D0F812
:1009B000C40200F0B1FB032896BF024B0320185C71
:1009C00008BD00BFC834000808B5D0F8C40200F064
:1009D00015FC032896BF024B0320185C08BD00BF1E
:1009E000C834000808B5D0F8C40200F0DFFB0328C3
:1009F00096BF024B0320185C08BD00BFC834000836
:100A0000FEE700BFFEE700BFFEE700BFFEE700BF56
:100A1000FEE700BF704700BF014801F025BE00BFE0
:100A200094050020014800F061B800BF8C0100204F
:100A300082B00E4B00220092596C41F480415964FF
:100A4000596C01F48041009100990192196C41F0B8
:100A5000805119641B6C03F080530193019B0F219B
:100A60006FF0010002B001F011BC00BF003802407D
:100A700030B5014689B000221C2001F007FC1C2083
:100A800001F03CFC0025164B02951A6C154C42F007
:100A900001021A641B6C03F0010301A9029303A86D
:100AA000029B01F09DFA01F08BFA0F4A2561430089
:100AB000A2FB03239B0C013B4FF0804140F2E73245
:100AC0002046C4E901352160E26001F0D9FE10B191
:100AD000012009B030BD204601F082FD09B030BDD3
:100AE000003802409405002083DE1B432DE9F04FBF
:100AF000066887B00446304600F062FF10B107B0C8
:100B0000BDE8F08F8346206800F028FF0028F6D06B
:100B1000206800F023FF10F0020F20681EBF436919
:100B200003F00203436100F019FF10F0100F20687A
:100B300012D0836923F010038361356AC5F3434300
:100B4000022B05F00F0700F04F82062B00F0A88162
:100B5000836943F01003836100F000FF10F4002F5D
:100B6000206840F0C08000F0F9FE10F4802F20686B
:100B70005AD100F0F3FE002842DB206800F0EEFEC0
:100B8000010532D4206800F0E9FEC30400F125819C
:100B9000206800F0E3FE10F4005F206840F006815A
:100BA00000F0DCFE070700F1F880206800F0D6FEB8
:100BB000C60200F1E880206800F0D0FE850200F156
:100BC000D880206800F0CAFE400000F1C98020688B
:100BD00000F0C4FE410792D523685D686A0700F102
:100BE00025825A682A435A6089E7D6F80838DA0716
:100BF00000F118822068436903F400634361C2E78F
:100C0000D6F8043823F00103C6F8043894F8F43316
:100C1000012B00F03E812046FFF774FE20684369F7
:100C200003F000434361A9E700F0A4FE8146206879
:100C3000B9F1000F9DD006F51063CDE902362546C7
:100C40004FF0000ACDF810B007E05FEA59090AF149
:100C5000010A05F11C0500F0388119F0010FF4D0EC
:100C60005FFA8AF7394600F097FEC307064619D5A2
:100C7000039B2169D3F834084FF0010C0AF00F02EE
:100C80000CFA02F220EA0200029AC3F8340802EBDE
:100C90004A126145C2F808C000F0CD8139462046AD
:100CA000FFF7F4FD300704D5029B03EB4A1308223B
:100CB0009A60F10604D5029B03EB4A1310229A6056
:100CC000720604D5029B03EB4A1340229A60B307D5
:100CD00004D5029B03EB4A1302229A60300600F10E
:100CE00035812068B1E700F03DFE05462068002D03
:100CF0003FF439AF06F5306304F501790027029619
:100D00009A4606E06D0807F1010709F11C0900F099
:100D1000DA80E907F6D5FEB2314600F033FE8046B0
:100D200018F0010F206840F0F08018F0080F40F034
:100D3000CF8018F0100F03D00AEB471310229A60EF
:100D400018F0200F03D00AEB471320229A6018F402
:100D5000005FD7D00AEB47134FF400529A60D1E7F7
:100D60002046FFF7DBFD2068436903F080434361C1
:100D70002EE720460021FFF7C9FD2068436903F4F0
:100D8000001343611EE720460021FFF7C3FD2068E2
:100D9000436903F4801343610EE72046FFF780FDAB
:100DA0002068436903F008034361FFE600F00CFE8E
:100DB000206800F051FBE060256801F0FBF8227B21
:100DC0000146284600F0BEFA2046FFF76DFD206878
:100DD000436903F400534361E2E6D6F8043820681F
:100DE00023F001031021C6F8043800F023FB6068EB
:100DF00006F5006500B306F510634FF67F31996084
:100E00001A6822F400121A601A6842F000621A602E
:100E1000C3F80812D3F8002222F40012C3F800220B
:100E2000D3F800220BF1010B42F000628345C3F8B6
:100E3000002203F12003E2D1EB69226B43F001139E
:100E4000EB61DAB96B6943F4005343F02B036B6138
:100E50002B6943F00B032B61D6F80038217C206806
:100E600023F4FE63C6F8003804F5717200F0BCFD8F
:100E70002068436903F4805343618AE6D5F88430DF
:100E800043F00B03C5F884306B6C43F00B036B64C9
:100E9000E2E7002184F8F413204600F051FABDE6A1
:100EA000082204F571713046C7EBC70700F0DAFC81
:100EB00004EB8702C5F30A13D2F8141220680B441E
:100EC000C2F8143244E6029E4DE6DDE9036B50E6BB
:100ED0000AEB471308229A60026C00EB47138C4818
:100EE000D3F8081B824203F5306340F2B6800A044F
:100EF00002D54FF400429A602046FFF7B7FC216903
:100F0000012900F0D680206813E7D4F810C000F55E
:100F100030620AEB4711012302EB47128B60BCF1F0
:100F2000010F036CD2F808E000F09C8079498B42F5
:100F300000F0AF8027B9D4F81022002A00F0E28038
:100F400020463146FFF798FC2068EEE6D5E91413F9
:100F5000D4F800808B4240463FF677AE08F5106B20
:100F60006A6CCDF814800BEB4A1BA1EB030C6245B5
:100F7000DBF8186028BF6246B6B20332B6EB920FB8
:100F80001BD282E0F9B1D5E911319E4228BF1E463D
:100F900094F810C0CDF800C0B3B200F04DFCDBF8FF
:100FA0001820A96C6B6D3144334492B20336B2EB16
:100FB000960FA9646B6564D3296D8B42A1EB030680
:100FC0003A464046DED3D4F80080059B012003F565
:100FD00000610AF00F02D3F8343800FA02F223EA73
:100FE000020340464B6330E647F6F0731D423FF480
:100FF000AFADC7EBC70704EB8707C5F30A12D7F8F5
:101000000812304600F02EFCD7F80822D7F8143228
:101010002068C5F30A152A442B44C7F80822C7F8EC
:10102000143295E52046FFF755FCE3E52046FFF72F
:1010300079FC2368D5E5D5E911231344AB64BAF1F3
:10104000000F7FF42BAE236D002B7FF427AE2068BA
:1010500004F5717200F0C8FC20E62046FFF706FC9C
:10106000206866E61EF0080F1DD029498B427FF6E6
:101070005CAE1EF4004F3FF458AE4FF40043936053
:1010800053E6D4F80080296D40468B42FFF4DDAD75
:101090009BE71EF4004FF0D11EF0200F3FF450AF3D
:1010A000202191604CE71EF0200F08D02023936090
:1010B0003BE6206804F5717200F096FC23E71EF011
:1010C000280F7FF432AE12498B4202D91EF4004F32
:1010D000D3D1D9E900311269C2F312029A1A194424
:1010E000C9F81020C9F80410002F7FF429AFD4F8F4
:1010F0001022002A7FF424AF04F57172012100F060
:1011000073FC1DE704F57172394600F06DFC17E7BA
:101110000A30544F0A31544F90F8BC23012A0DD0A5
:1011200010B50122044680F8381080F8BC2300680E
:1011300000F004FC002084F8BC0310BD02207047BE
:1011400070B501F00F0511F0800FC5EBC501064623
:1011500000EB81014FF01C041ED1002004FB05644C
:1011600081F8FD0104F5FE7148780D708A60CB703E
:1011700000B1CD80022B04BF00230B7196F8BC3365
:10118000012B11D00123306886F8BC3300F070F9D0
:10119000002086F8BC0370BD012004FB056481F8C3
:1011A0003D0004F13C01DFE7022070BD38B501F0DD
:1011B0000F05C5EBC50400EB84040021C4F8082228
:1011C000C4F8141284F8FD11C4F8103284F8FC51EC
:1011D00003691C2101FB0501012B08BFC4F80C2287
:1011E000006801F5FE71DAB21DB900F0A3FA002023
:1011F00038BD00F089F9002038BD00BF70B501F09E
:101200000F05C5EBC50400EB840401210026A26490
:1012100084F83D10236584F83C50666503691C2101
:1012200001FB0501012B08BFE26400683C31DAB222
:101230001DB900F07FFA002070BD00F065F90020B4
:1012400070BD00BF38B5436801F00F059D4233D82B
:101250000B0604461CD4C1EBC10300EB83031C2026
:1012600000FB0141002201F5FE7183F8FD210123FD
:101270000D708B7094F8BC239A421BD0206884F8C0
:10128000BC3300F001FBCDB1002084F8BC0338BDB5
:10129000C5EBC5031C2101FB050100EB8303012203
:1012A0003C3183F83D2001230D708B7094F8BC23F2
:1012B0009A42E3D1022038BD012038BD217C20684C
:1012C00004F5717200F090FBDEE700BF426838B5AC
:1012D00001F00F03934230D8C3EBC30211F0800F2B
:1012E000044600EB82024FF01C0117D101FB0341C1
:1012F00001F5FE710020002582F8FD010B708D7054
:1013000094F8BC33012B16D00123206884F8BC3339
:1013100000F0E8FA84F8BC53284638BD01FB0341CD
:101320003C310120002582F83D000B708D7094F84F
:10133000BC33012BE8D1022038BD012038BD00BFED
:10134000704700BF022A0AD04FF41051C26822F43D
:101350007052C260C3680B43C36000207047264BC5
:10136000264A0B44934232D9254B264A0B449342DA
:1013700030D9254AA1F57403A3F5105393422CD913
:10138000224AA1F18373A3F5E743934228D3204B6C
:10139000204A0B44934226D91F4B204A0B449342C8
:1013A00024D31F4B1F4A0B449342CDD31E4AA1F1B5
:1013B000B773A3F5585393421BD31C4B1C4A0B44E1
:1013C000934234BF4FF4E0514FF4C051BEE74FF4A5
:1013D0007051BBE74FF46051B8E74FF45051B5E797
:1013E0004FF44051B2E74FF43051AFE74FF4205182
:1013F000ACE74FF40051A9E7405327FFFF340C003E
:10140000401E1BFF3F420F007F4F120020D61300EB
:1014100060B6E5FE5FE3160000D3CEFE40771B000A
:10142000C05BB3FEC091210020753800E05459FE26
:10143000E09C4100890141F02001064A016101E080
:10144000013A05D0036913F02003F9D1184670471B
:1014500003207047400D0300D0F8083813F0060051
:1014600004D013F0020F14BF02200F20704700BFFA
:1014700070B44B780A78012B22D002F00F054FF49C
:101480008033AB40D0F81C5800F500642B4300EBD0
:101490004210E361D0F8003B1B040ED48B68D0F8F7
:1014A000004BCA78C3F30A03234343EA824343F061
:1014B000805343F40043C0F8003B002070BC7047E9
:1014C000D0F81C6802F00F0400F50065A340334318
:1014D00000EB4210EB61D0F800391C04EDD48B68AE
:1014E000D0F80049C978C3F30A03234343EA814390
:1014F00043EA825242F0805242F40042C0F800298E
:1015000070BC0020704700BF2DE9F0434D780C7887
:10151000012D53D000EB44144D69D4F8106BF60C38
:10152000F604C4F8106BD4F8106B26F0FF5626F4BE
:10153000C01604F530631E617DB38E687C4FD3F80E
:1015400010C03544013DB5FBF6F507EAC54747EA4B
:101550000C071F61ADB206FB05F51E69C5F3120548
:101560003543012A1D6124D0CB78012B0CD1D0F852
:10157000083813F4807FD4F8003B0CBF43F00053CD
:1015800043F08053C4F8003BD4F8003B43F00443DD
:10159000C4F8003B0020BDE8F0838D681E69C5F3E8
:1015A000120535431D611D69012A45F400251D61A1
:1015B000DAD1CA68002AD7D05A61D5E74E69002E21
:1015C00040D000EB441ED1F80890DEF810C9584F07
:1015D0004FEADC4C4FEACC4CCEF810C9DEF810894B
:1015E00028F0FF5828F4C018CEF81089DEF81089CA
:1015F00006EB090C0CF1FF3CBCFBF9FC07EACC47FD
:1016000047EA0807CEF81079DEF810C9C6F31207CA
:1016100047EA0C07CEF81079CF78012F0EF510634A
:1016200055D0012A6FD0DEF8003943F00443CEF8DC
:101630000039D0F8343804F00F04A5401D43C0F839
:101640003458A7E700EB441C012ADCF8105925F0B8
:10165000FF5525F4C015CCF81059DCF8105945F4A5
:101660000025CCF81059DCF810594FEAD5454FEA5F
:10167000C545CCF810590CF51063CF7838D0DCF89C
:101680000059012F45F00445CCF8005982D1D0F81B
:10169000085815F4807F1D680CBF45F0005545F0D3
:1016A00080551D60002A7FF475AFB6B20336B608C8
:1016B0003FF470AFCB6800EB043003EB860100F51C
:1016C000805053F8042B02608B42FAD162E71D6907
:1016D00025F0C0451D611D69012A45F000551D61B9
:1016E00016D0DEF8005945F00445CEF80059CEE793
:1016F0000A695AB9012F0ED01A6842F004421A60E2
:101700000020BDE8F0830A69002AF5D05A61F1E7AC
:101710000A69002AFAD1D0F8082812F4807F1A68E2
:101720000CBF42F0005242F080521A60E4E700BF62
:101730000000F81FF0B44B780C78012B2DD000EB93
:1017400044104D69D0F8104BE40CE404C0F8104B81
:10175000D0F8104B24F0FF5424F4C01400F530638B
:101760001C618C6805B14C611D6945F400251D6143
:101770001D69C4F312042C43012A1C6108D0D0F85F
:10178000003B43F00443C0F8003B0020F0BC70472E
:10179000CA68002AF3D05A61F1E74D6900EB44139F
:1017A00003F510636DB31E698F68F60CF6041E61B5
:1017B0001E6926F0FF5626F4C0161E611E69BD4242
:1017C00046F4002688BF4F611E611E6988BF3D46F2
:1017D000C5F312053543012A1D6122D01A684969F3
:1017E00042F004421A600029CFD0D0F8343804F017
:1017F0000F02012494401C43C0F834480020F0BC80
:1018000070471D6925F0FF5525F4C0151D611D6940
:1018100045F400251D611D69ED0CED04012A1D61D3
:10182000DCD10A6902B15A611A6842F00442002010
:10183000F0BC1A60704700BF10B49DF8044064B952
:1018400003339B0809D0013200EB023001EB830324
:1018500051F8042B02608B42FAD100205DF8044B52
:10186000704700BF033292080CD010B400F58054CA
:1018700001EB8200236841F8043B8142FAD15DF814
:10188000044B7047084670474A780B78012A00EBF2
:1018900043100CD0D0F8002B002A00DBD3B9D0F8CD
:1018A000003B43F40013C0F8003B00207047D0F821
:1018B0000029002A06DB2BB1D0F8003923F0804341
:1018C000C0F80039D0F8003943F40013C0F80039EB
:1018D00000207047D0F8003B23F08043C0F8003B65
:1018E000DDE700BF4A780B78012A00EB431013D0E4
:1018F000D0F8003B23F40013C0F8003BCB78023B48
:10190000012B01D900207047D0F8003B43F08053F1
:10191000C0F8003B00207047D0F8003923F40013D2
:10192000C0F80039CB78023B012BEBD8D0F8003956
:1019300043F08053C0F8003900207047D0F80038D9
:1019400023F4FE63C0F80038D0F80038090101F430
:10195000FE611943C0F80018002070474269806991
:1019600010407047D0F8183800F50060C069184082
:10197000000C7047D0F8183800F50060C0691840B6
:1019800080B2704700EB411100F50060D1F8082BE0
:1019900040691040704700BF10B4D0F81048D0F82C
:1019A000343800EB411001F00F0100F51060CB401E
:1019B000DB018068DBB2234318405DF8044B7047BD
:1019C000406900F001007047D0F8003923F4FF634C
:1019D00023F00703C0F80039D0F8043843F48073CB
:1019E000C0F804380020704710B4144B046C9C42BB
:1019F0001AD800F5306000230361036943F4002323
:101A00000361036943F0180303610369012943F08B
:101A1000C043036104D14261036843F08023036043
:101A200000205DF8044B7047D0F8003B002B00F518
:101A30003060E0DA00205DF8044B70470A30544F04
:101A4000002800F0A5812DE9F0410368DD0782B090
:101A500004462FD5AC498A6802F00C02042A00F033
:101A6000EC808A6802F00C02082A00F0E2806368C9
:101A7000B3F5803F00F0EB80B3F5A02F00F0788144
:101A8000A14D2A6822F480322A602A6822F480223A
:101A90002A60002B40F0E08000F064FC064605E080
:101AA00000F060FC801B642800F200812B689B031F
:101AB000F6D423689F0728D5934A916811F00C0F3C
:101AC00000F09080916801F00C01082900F08680F8
:101AD000E368002B00F006818C4B8B4E01221A60CC
:101AE00000F040FC054605E000F03CFC401B0228ED
:101AF00000F2DC8033689807F6D53368226923F05A
:101B0000F80343EAC203336023681A0752D4580724
:101B10002FD57D4A136C13F080537ED000257C4E68
:101B20003368D90540F1B280A368012B00F0C28070
:101B3000052B00F02F81744E326F22F001023267C4
:101B4000326F22F004023267002B40F0B88000F0C0
:101B500009FC41F28838074605E000F003FCC01B91
:101B6000404500F2A380336F9807F6D4002D40F073
:101B70000981A069D0B1644DAB6803F00C03082B58
:101B800000F0CC80634B002202281A6000F00C8128
:101B900000F0E8FB2C46054605E000F0E3FB401BA7
:101BA000022800F2838023689B01F6D4002002B053
:101BB000BDE8F081636903B3574B534E01221A60AD
:101BC00000F0D0FB054604E000F0CCFB401B0228EF
:101BD0006CD8736F9B07F7D5236898E75268560255
:101BE0003FF576AF484A1268950743D5E268012A67
:101BF00040D0012002B0BDE8F081474A424E136058
:101C000000F0B0FB054604E000F0ACFB401B0228EE
:101C10004CD8736F9F07F7D4DEE70193136C43F042
:101C200080531364136C03F080530193019B0125CF
:101C300075E74A6850027FF51AAF334A126891037C
:101C40007FF538AF6268002A7FF434AFD1E72E4ABF
:101C5000136843F48033136000F084FB2A4E05467A
:101C600004E000F07FFB401B64281FD833689A0310
:101C7000F7D51EE7244920690A6822F0F80242EAF3
:101C8000C0020A601A077FF542AF93E7336843F456
:101C90008073336000F066FB07463368DA053FF572
:101CA00043AF00F05FFBC01B0228F6D9032002B04F
:101CB000BDE8F081144A136F43F00103136700F08D
:101CC00051FB114F064641F2883804E000F04AFB10
:101CD000801B4045EAD83B6F9B07F7D5002D3FF4AA
:101CE00048AF4FE0094A084E136000F03BFB054641
:101CF00004E000F037FB401B0228D7D8336899076F
:101D0000F7D4236801E700BF0038024000004742D3
:101D10000070004060004742800E474201283FF4B7
:101D200046AF6B68E26903F4800191427FF461AFD2
:101D3000226A03F03F0191427FF45BAF616A47F68C
:101D4000C0721A40B2EB811F7FF453AFA26A5208EF
:101D5000013A03F44031B1EB024F7FF44AAFE26A3B
:101D600003F07063B3EB026F14BF012000201EE785
:101D7000244B1A6842F480221A601A6842F48032B6
:101D80001A6069E71F4A136C23F080531364F0E66E
:101D9000012070471B4B1A6F42F004021A671A6F3A
:101DA00042F001021A678AE700F0DCFA064605E015
:101DB00000F0D8FA801B02283FF678AF2B68990113
:101DC000F6D4D4E90736D4E90902E16A334343EA99
:101DD0008013520843EA0163013A0B49094E43EA72
:101DE000024301226B600A6000F0BCFA044605E081
:101DF00000F0B8FA001B02283FF658AF33689A018A
:101E0000F6D5D3E60038024060004742174908B5CE
:101E10008B6803F00C03042B1BD0082B17D14A68E6
:101E20004B6813F4800302F03F0214D14968104854
:101E3000C1F38811A1FB0001FEF7CAF90B4B5B68E7
:101E4000C3F3014301335B00B0FBF3F008BD084866
:101E500008BD084808BD4B680648C3F38813A3FBB8
:101E600000010023FEF7B4F9E8E700BF00380240A4
:101E70000024F400001BB700002800F08780484AC7
:101E8000136803F007038B422DE9F0410D46044629
:101E900009D2CBB21370136803F007038B4202D050
:101EA0000120BDE8F0812368980714D5590704D5AF
:101EB0003C498A6842F4E0528A601A0704D53949DD
:101EC0008A6842F460428A603649A0688A6822F0D3
:101ED000F00202438A60DF0721D56268012A57D0E9
:101EE000931E012B2F4B1B684DD99907D8D52D4E2A
:101EF000B36823F003031343B36000F033FA41F2F5
:101F00008838074604E000F02DFAC01B404544D84D
:101F1000B368626803F00C03B3EB820FF3D1204A7D
:101F2000136803F00703AB4206D9EBB213701368D2
:101F300003F00703AB42B3D123685A0706D519490A
:101F4000E0688A6822F4E05202438A601B0707D5E2
:101F5000144A2169936823F4604343EAC103936000
:101F6000FFF754FF0F4A104C92681049C2F3031256
:101F70000346A25C0E48D34000680B60FEF778FD74
:101F80000020BDE8F0819801B1D489E701207047B5
:101F9000044B1B689E03AAD482E7032081E700BF9D
:101FA000003C024000380240CC3400080800002009
:101FB00004000020014B1868704700BF0800002093
:101FC000044B054A9B680549C3F382230868D35C28
:101FD000D840704700380240DC3400080800002078
:101FE0000E4B0F2202609A6802F0030242609A6868
:101FF00002F0F00282609A6802F4E052C2609B68CC
:10200000DB0810B403F4E053054C036123685DF86A
:10201000044B03F007030B60704700BF0038024019
:10202000003C02402DE9F04F8B46DFF814A209680E
:10203000DFF810C285B00023D94603E00133102B2E
:1020400000F0888001229A4002EA010B8A43F5D110
:10205000D9F8045005F00302541E012C4FEA43073F
:102060007BD9032A40F0BA80BA40D4430094076871
:10207000009C3C402243EE000260DFD50022039228
:10208000DAF8442042F48042CAF84420DAF84420C6
:1020900023F0030404F1804402F4804204F59C34EC
:1020A000039203F00306039AA768B6000F22B2401A
:1020B00027EA02025B4FB84220D007F58067B8429A
:1020C00000F09180584FB84200F09280574FB842CC
:1020D00000F09380564FB84200F09480554FB842BC
:1020E00000F09580544FB84200F09680534FB842AC
:1020F0000CBF0727082707FA06F63243A260DCF870
:1021000000206FEA0B06EC0354BF32404BEA020298
:10211000CCF80020DCF80440AA0354BF34404BEA5A
:102120000404CCF80440DCF80840EF0254BF34400B
:102130004BEA0404CCF80840DCF80C20AC0203F1B4
:10214000010354BF32404BEA0202102BCCF80C20A2
:102150007FF478AF05B0BDE8F08F86680324BC40FB
:1021600026EA040ED9F80C60BE4046EA0E068660E8
:10217000D0F804E0C5F300162EEA0B0E9E4046EAA6
:102180000E06E44300944660C668009C06EA040E0E
:10219000D9F80860BE4046EA0E06022AC66001D0A1
:1021A000BA4064E74FEAD30800EB880803F0070E53
:1021B000D8F8204001944FEA8E0E0F2404FA0EF650
:1021C000019C24EA0606D9F81040019604FA0EF69E
:1021D000019C2643BA40C8F8206048E70324BC406D
:1021E000E4430094D0E7012707FA06F6324385E777
:1021F000022707FA06F6324380E7032707FA06F6B6
:1022000032437BE7042707FA06F6324376E70527D1
:1022100007FA06F6324371E7062707FA06F6324355
:102220006CE700BF0000024000080240000C0240C2
:10223000001002400014024000180240001C02403E
:1022400000380240003C014002B909048161704736
:10225000436901EA030221EA030141EA0241816183
:10226000704700BF0849CA6810B400024FF6FF0467
:10227000224000F4E063134343F0BF6343F40033B0
:102280005DF8044BCB60704700ED00E0194BDB6854
:10229000C3F3022330B4C3F10705042D03F1040492
:1022A00028BF0425062C19D9033B4FF0FF349C406E
:1022B00022EA04024FF0FF34AC4021EA04019940C5
:1022C000002841EA02010CDB00F1604000F56140AA
:1022D0000901C9B280F8001330BC704700221346D0
:1022E000E8E7054B00F00F0009010344C9B2197675
:1022F00030BC704700ED00E0FCEC00E0002807DB9C
:1023000000F01F01034A400901238B4042F82030AE
:10231000704700BF00E100E008B50B4B1A6842F4BB
:1023200000721A601A6842F480621A601A6842F4F5
:1023300080721A600320FFF795FF0020FEF798FBDC
:10234000FEF776FB002008BD003C0240034A044B28
:1023500011681B780B441360704700BFDC05002038
:1023600000000020014B1868704700BFDC0500200A
:1023700038B50446FFF7F6FF631C054602D0044B50
:102380001B781C44FFF7EEFF431BA342FAD338BD72
:1023900000000020002800F0B580F8B590F83D302E
:1023A000044603F0FF02002B00F0948023682422EF
:1023B00084F83D201A6822F001021A601A6842F47B
:1023C00000421A601A6822F400421A60FFF7F8FD12
:1023D00065684D4B9D424CD84C4B984278D9226849
:1023E0004B4B5168A3FB006321F03F0141EA93414D
:1023F0005160116A9B0C21F03F0101330B431362C2
:10240000D16901386B00B0FBF3F340F6FC70013387
:1024100021F44F41034221F0FF0160D104230B431B
:10242000D361D4E907351068216920F0C0002B433F
:10243000034313609068E568636920F4034020F06B
:10244000FF00294301439160D168A06921F0FF0199
:1024500003430B43D3601168002341F001012025A1
:102460001160236484F83D50236384F83E3018469D
:10247000F8BD284B98422BD9226825495668264F2B
:10248000A1FB003126F03F0646EA91464FF49673D1
:10249000890C566003FB01F3A7FB0313116AA668BE
:1024A0009B0921F03F0101330B431362D16921F4F1
:1024B0004F4121F0FF01AEB9013805EB4503B0FBF8
:1024C000F3F30133C3F30B03D3B143F40043A6E7A3
:1024D0000120F8BD80F83C20FEF71EF966E7C3F343
:1024E0000B039CE705EB850303EB83030138B0FB8B
:1024F000F3F30133C3F30B0313B143F440438EE70B
:1025000001238CE701207047A08601007F841E0014
:1025100083DE1B43FF083D00D34D621000285BD0D3
:10252000F8B5476A0446002F46D00023C0E90433BB
:1025300094F85120002002F0FF01A062002A41D04F
:10254000D4E90135E168A66903F4827205F4044513
:1025500023692A4301F400610A4303F0020163691D
:102560000A4303F001031A43E369216803F0380EBC
:1025700006F400731343022284F85120226A350CBA
:1025800043EA0E0302F0800605F004020D6807F02E
:10259000100733433A43034325F040050D600B60B9
:1025A0004A60CB69002223F400630125CB61626598
:1025B00084F851501046F8BD4368B3F5827FB7D018
:1025C000C761B5E7204684F85010FEF701F9D4E959
:1025D000097303F40050B3E701207047704700BF50
:1025E00090F83D30012B2FD103681949022280F861
:1025F0003D20DA688B4242F00102DA6019D0B3F173
:10260000804F16D0134A934213D002F58062934252
:102610000FD002F5806293420BD002F578429342CC
:1026200007D002F57052934203D0A2F59432934240
:1026300004D19A6802F00702062A07D01A6842F00D
:1026400001021A6000207047012070470020704787
:102650000000014000040040704700BF704700BF09
:10266000704700BF704700BF03681A69910710B533
:10267000044602D5DA6892075FD41A69500702D57A
:10268000DA68510746D41A69120702D5DA681007CA
:102690002ED41A69D20602D5DA68D00618D41A697F
:1026A000D10702D5DA68D2075DD41A69100602D5BF
:1026B000DA6811065FD41A69520602D5DA68500644
:1026C00061D41A69910602D5DA68920643D410BD26
:1026D0006FF01001082219612277DB6913F4407F43
:1026E000204664D0FFF7BAFF002223682277D6E79E
:1026F0006FF00801042219612277DB6999072046EF
:1027000052D1FFF7A9FF2046FFF7AAFF0022236856
:102710002277BEE76FF004010222196122779B69DC
:1027200013F4407F20463CD1FFF796FF2046FFF789
:1027300097FF002223682277A5E76FF002010122AC
:10274000196102779B699B0725D0FFF787FF00225D
:102750002368227791E76FF0200220461A61BDE8D6
:10276000104000F0BBB86FF001021A612046FDF77F
:1027700015FF236899E76FF080021A61204600F088
:10278000AFF8236897E76FF040021A612046FFF721
:1027900069FF236895E7FFF75FFF2046FFF760FFBB
:1027A000D5E7FFF75BFFC4E7FFF758FFAEE7FFF79A
:1027B00053FF2046FFF754FF96E700BF2F4A0368F8
:1027C000904270B443D0B0F1804F34D0A2F57C4237
:1027D000904230D002F5806290422CD002F58062A7
:1027E000904228D002F57842904230D002F57052E3
:1027F000904224D002F58062904220D002F580629F
:1028000090421CD0A2F59832904218D002F5806216
:10281000904214D002F58062904210D04D698C68CD
:102820000A6823F080032B4303600123C4628262A1
:1028300070BC436170474A6823F070031343CE684D
:102840004D698C680A6823F440733343E9E74D68A7
:10285000CC684A6923F070032B4323F4407323436D
:1028600023F08003134303608B68C3620B688362A9
:102870000B690363012370BC436170470000014092
:1028800050B310B590F83D30044603F0FF02F3B1A9
:102890000223214684F83D3051F8040BFFF78EFFE8
:1028A000012384F8463084F83E3084F83F3084F8C1
:1028B000403084F8413084F8423084F8433084F862
:1028C000443084F8453084F83D30002010BD80F855
:1028D0003C20FFF783FEDBE701207047704700BF15
:1028E000704700BF034AD2F8883043F47003C2F83F
:1028F0008830704700ED00E04368026810B49C68BF
:102900008C609C684B600132616099605DF8044B9B
:1029100008610260704700BF036910B4D0E901127A
:102920005C688A608442516008BF5A601A685DF82A
:10293000044B0021013A01611A601868704700BF1A
:10294000034A044B1268D268D26852681A60704712
:102950002C000020C80000202DE9F04F454B1E68D8
:10296000013683B01E60DEB9434B1A68126842B16B
:102970004FF0500383F31188BFF36F8FBFF34F8F76
:10298000FEE73E4A18683E4914681C6010600A68F9
:1029900001320A601B681B68002B5FD0FFF7D0FF75
:1029A000384D2B689E4242D3DFF8CC90D9F80030E6
:1029B0001C68002C57D0344FDFF8D480DFF8D4A047
:1029C000002426E00191FFF7A7FFDBF828200199FA
:1029D0000BF1180012B1FFF79FFF0199DBF82C00F3
:1029E000DAF800300122824000EB80001A4307EB46
:1029F0008000CAF80020FFF77FFFD8F80020D9F840
:102A00000000DBF82C10D26A0368914228BF012431
:102A100063B3D9F80030DB68D3F80CB0DBF80420DE
:102A20000BF1040196420846CCD22A6003E0164F0F
:102A3000DFF85C800024D8F800301449DB6A03EB2F
:102A400083039B00FA580B68022A28BF0124002B3D
:102A50000CBF2046012003B0BDE8F08F094D4FF0B8
:102A6000FF332B609DE7084FDFF824804FF0FF33E2
:102A70002B60E0E7D40000202C0000203000002074
:102A8000CC000020C800002034000020D800002026
:102A900028000020C4000020054B1B680BB9FFF77D
:102AA0005BBF044A1368013313600020704700BF06
:102AB000C0000020D0000020184B1B681BB1184B31
:102AC00001221A6070471649164A0B601368B3FA60
:102AD00083F3DBB2C3F11F0303EB830312499A00B4
:102AE00001EB8303885840B94FF0500383F31188FA
:102AF000BFF36F8FBFF34F8FFEE710B45C6802F136
:102B0000080062685A6001448A4204BF52685A60F1
:102B1000064BD2685DF8044B1A607047C000002075
:102B2000D8000020C400002034000020280000202D
:102B3000074B19680868B0E8F04F80F30988BFF3C5
:102B40006F8F4FF0000080F311887047AFF3008063
:102B5000280000200000000000000000000000002D
:102B6000EFF30980BFF36F8F154B1A681EF0100F3B
:102B700008BF20ED108A20E9F04F10602DE9090010
:102B80004FF0500080F31188BFF34F8FBFF36F8F6A
:102B9000FFF792FF4FF0000080F3118809BC19681D
:102BA0000868B0E8F04F1EF0100F08BFB0EC108AB4
:102BB00080F30988BFF36F8F704700BFAFF30080C9
:102BC0002800002008B54FF0500383F31188BFF3AD
:102BD0006F8FBFF34F8FFFF75FFF18B1034B4FF0BD
:102BE00080521A60002383F3118808BD04ED00E0D1
:102BF000D0F8B8320BB11B6818470320704700BFEC
:102C000008B5D0F8B8320BB15B689847002008BD12
:102C100038B5044600F2AA25284600F0B1FB94F826
:102C2000AA12B4F8B032C4F89832012201F01F039E
:102C30009342C4F8942209D0022B13D063B12046EA
:102C400001F08001BDE83840FDF780BE29462046EE
:102C5000BDE8384000F0CABA29462046BDE83840F1
:102C600000F024B929462046BDE8384000F0EEBA0D
:102C700010B5044631B91346D0F89422032A0DD07A
:102C8000002010BD90F89C32032BF9D1D0F8B83257
:102C90009B69002BF4D0BDE810401847D0E95712CB
:102CA000914208D890F89C32032B0ED0204600F0B9
:102CB00099FB002010BD891A8A4228BF0A46C0F835
:102CC0005C11194600F086FBDAE7D0F8B8321B69D0
:102CD000002BEBD09847E9E770B5044651B913468D
:102CE000D0F89422022A11D094F8A032012B22D0DD
:102CF000002070BD90F89C32032BF9D1D0F8B83287
:102D00005B69002BF4D0BDE870401847D0E9072676
:102D1000B2420D4614D81FD094F89C32032B28D011
:102D200080212046FDF712FE204600F067FB94F854
:102D3000A032012BDCD1002384F8A032002070BD2A
:102D4000921BC261194600F03DFB2B462A462946DC
:102D50002046FDF747FEC7E783699A42DCD8D0F8E2
:102D600098229342D8D20A4600F02CFBC4F898521D
:102D7000EBE7D4F8B832DB68002BD1D02046984777
:102D8000CEE700BFD0F8B8320021012280F89C22A3
:102D90004160C0F89412C0F8A412EBB1D0F8BC2284
:102DA00070B5044612B15B6803B198470022402316
:102DB0001D46114601262046FDF7B8FDA4F86461C2
:102DC000C4F860512B46002280212046FDF7AEFD5D
:102DD000A6842562002070BD032070470174002086
:102DE000704700BF90F89C2203460421D2B280F8BD
:102DF0009D22002083F89C12704700BF90F89C32FF
:102E0000042B04D190F89D32DBB280F89C32002074
:102E1000704700BFD0F8B8225AB108B590F89C327C
:102E2000032B01D0002008BDD36923B198470020AF
:102E300008BD03207047184608BD00BFD0F8B8226F
:102E40005AB108B590F89C32032B01D0002008BD80
:102E5000136A23B19847002008BD03207047184625
:102E600008BD00BFD0F8B8225AB108B590F89C321E
:102E7000032B01D0002008BD536A23B198470020DE
:102E800008BD03207047184608BD00BF00207047EA
:102E9000D0F8B822012180F89C122AB108B55268F6
:102EA00001799047002008BD00207047F0B50C78EC
:102EB00004F06004202C83B00E4605460ED0402C52
:102EC0000CD0ACB180212846FDF740FD28460021FA
:102ED000FDF73CFD0024204603B0F0BDD5F8B83224
:102EE00031469B68284698470446204603B0F0BD0B
:102EF0004B78092BE6D801A252F823F05D2F000889
:102F00008B2F0008C52E0008A92F0008C52E000829
:102F1000B12F0008E92F0008C52E00080530000871
:102F2000252F00088E78B04F012E3E7000F23981B7
:102F300090F89C32022BDAB200F02181032A00F0D3
:102F4000FB808021FDF702FD00212846FDF7FEFCF5
:102F500039782846FFF754FE0324BCE790F89C22FA
:102F6000013A022A66D8CA88022A63D1D0F8A4227C
:102F70000121C1600AB10322C260022205F10C01E5
:102F800028461C4600F010FAA5E790F89C32013B59
:102F9000022B4FD84B88012B9DD10023C5F8A432BA
:102FA000284600F01FFA96E74B88012B93D1F5E7EE
:102FB0008B88002B3ED1CB88002B3BD14E887F2EB7
:102FC00038D890F89C32032B34D0F1B280F89E129E
:102FD000FDF7ECFC284600F005FA002E00F0FF801B
:102FE000022385F89C3276E74A88130A0021013BC8
:102FF000ADF80610062B1DD8DFE803F06D604D1C00
:103000001C432700CA88012A14D190F89C12022977
:10301000CBB200F28A80002B3FF454AF014600236C
:1030200041F8083F00F0C0F955E7D0F8B4325B68CA
:10303000002B5DD180212846FDF788FC2846002121
:10304000FDF784FC204603B0F0BD037C002BF1D1DA
:10305000D0F8B8320DF106001B6B98470723437078
:10306000F288002A9CD0BDF80630002BE2D09A42AC
:1030700028BF1A4601462846ADF8062000F094F90C
:1030800029E7037C002BD5D1D0F8B8320DF106002A
:103090005B6B9847E4E7D2B2052ACBD801A353F87B
:1030A00022F000BF2B3000081F3100081331000848
:1030B00007310008FB300008E7300008037C002BD4
:1030C00040F08480D0F8B8320DF106009B6A984732
:1030D00002234370C4E7D0F8B432007C1B680DF1C2
:1030E00006019847BCE7D0F8B4329B69002BA1D009
:1030F000287C0DF106019847B2E7D0F8B4325B693D
:10310000002BF5D196E7D0F8B4321B69002BEFD134
:1031100090E7D0F8B432DB68002BE9D18AE7D0F829
:10312000B4329B68002BE3D184E7032B7FF4CAAE53
:10313000011D00F039F9CEE6002E3BD0416801298F
:103140003FF42EAFC9B2FFF75BFD397869602846BE
:10315000FFF74EFD064600283FF422AF80212846A7
:10316000FDF7F4FB00212846FDF7F0FB29792846FE
:10317000FFF746FD0223344685F89C32ABE6002E6D
:103180003FF40EAF01214160FFF732FD04460028F5
:103190007FF450AF284600F025F9032385F89C32D0
:1031A00099E68021FDF7D2FB28460021FDF7CEFBF2
:1031B000032490E60223466080F89C323146FFF7F4
:1031C0001FFD2846344600F00DF984E6D0F8B832E9
:1031D0000DF10600DB6A98470223437040E70123A4
:1031E00085F89C3277E600BFDC00002038B50B780C
:1031F00003F06002402A0D4604460BD05B0609D559
:103200008021FDF7A3FB20460021FDF79FFB002551
:10321000284638BD94F89C32013B022B12D82B79FA
:10322000012B0FD8D4F8B83229469B68204698471E
:10323000EB880546002BEBD10028E9D1204600F0B1
:10324000D1F8E5E780212046DBE700BF70B50B78B9
:1032500003F06003202B0D4604461BD0402B19D0F1
:1032600003B380212046FDF771FB20460021FDF7C6
:103270006DFB002070BD90F89C32022BDAB253D067
:10328000032AEED16B88002BF3D14E066FD1204676
:1032900000F0A8F8D4F8B832294620469B68BDE86B
:1032A000704018474B788A88012BD1B2E3D0032BAA
:1032B00029D0002BD5D190F89C32022BD8B23CD02B
:1032C0000328CED101F00F0303EB8303120604EBB6
:1032D000830341D4B3F86431002BC2D001F07F03E3
:1032E000142505FB034505F5AA752BB12046FDF70E
:1032F00049FB00283ED001232B60294620460222AC
:1033000000F052F8B5E790F89C32022BDAB20BD0FD
:10331000032AA6D16B881BB94A0601D0EB885BB3A0
:10332000204600F05FF8A4E74B069AD0FDF70EFBAD
:1033300020468021FDF70AFB9BE7480691D1110644
:103340004CBF04F1140104F5AA71002320460B6060
:10335000022200F029F88CE79B8C002B81D001F031
:103360007F035D1C05EB850504EB8505BDE7FDF7D7
:10337000FBFA8CE72860C0E7FDF7E8FAD0E700BF6A
:103380000B7803704B784370CA788B7843EA02233A
:1033900043804A790B7943EA02238380CA798B7987
:1033A00043EA0223C380704738B5134602250A4614
:1033B000C0E90633C0F894520021FDF705FB002058
:1033C00038BD00BF08B513460A460021FDF7FCFAD8
:1033D000002008BD08B513460A460021FDF702FB90
:1033E000002008BD08B504210023C0F894121A4635
:1033F0001946FDF7E9FA002008BD00BF08B5052110
:103400000023C0F894121A461946FDF7EBFA002083
:1034100008BD00BFDFF834D00D480E490E4A002326
:1034200002E0D458C4500433C4188C42F9D30B4A78
:103430000B4C002301E013600432A242FBD3FFF7E0
:1034400051FA00F011F8FDF791F8704700000220E2
:10345000000000200C000020F43400080C000020C4
:10346000E0050020FEE7000070B50D4D0D4C641B1B
:10347000A4100026A64209D10B4D0C4C00F018F800
:10348000641BA4100026A64205D170BD55F8043B6C
:1034900098470136EEE755F8043B98470136F2E7C6
:1034A000EC340008EC340008EC340008F034000878
:1034B000F8B500BFF8BC08BC9E467047F8B500BF21
:0834C000F8BC08BC9E467047F1
:1034C80000030103000000000000000001020304E3
:0C34D800060708090000000001020304C0
:0834E4001CCDFF7F0100000078
:0434EC00B50100081E
:0434F000910100083E
:0C34F40001000000100000000024F400A3
:0400000508003415A6
:00000001FF
