:020000040800F2
:1000000000000220654C0008890A00088D0A0008DB
:10001000910A0008950A0008990A000800000000EB
:10002000000000000000000000000000D13A0008BD
:100030009D0A000800000000613B0008C53B000865
:10004000B54C0008B54C0008B54C0008B54C00088C
:10005000B54C0008B54C0008B54C0008B54C00087C
:10006000B54C0008B54C0008B54C0008B54C00086C
:10007000B54C0008B54C0008B54C0008B54C00085C
:10008000B54C0008B54C0008B54C0008B54C00084C
:10009000B54C0008B54C0008B54C0008B54C00083C
:1000A000B54C0008B54C0008B54C0008B54C00082C
:1000B000A10A0008B54C0008B54C0008B54C000872
:1000C000B54C0008B54C0008B54C0008B54C00080C
:1000D000B54C0008B54C0008B54C0008B54C0008FC
:1000E000B54C0008B54C0008B54C0008B54C0008EC
:1000F000B54C0008B54C0008B54C0008B54C0008DC
:10010000B54C0008B54C0008B54C0008B54C0008CB
:10011000B54C0008B54C0008B54C0008B54C0008BB
:10012000B54C0008B54C0008B54C0008B54C0008AB
:10013000B54C00080000000000000000B54C0008AD
:10014000B54C0008B54C0008B54C0008AD0A0008D5
:10015000B54C0008B54C0008B54C0008B54C00087B
:10016000B54C0008B54C0008B54C0008B54C00086B
:10017000B54C0008B54C000800000000000000006D
:08018000B54C0008B54C000865
:1001900010B5054C237833B9044B13B10448AFF3C1
:1001A00000800123237010BD8401002000000000A6
:1001B000004D000808B5034B1BB103490348AFF3DA
:1001C000008008BD0000000088010020004D0008EC
:1001D00053B94AB9002908BF00281CBF4FF0FF31AE
:1001E0004FF0FF3000F06EB9ADF1080C6DE904CEB0
:1001F00000F006F8DDF804E0DDE9022304B0704702
:100200002DE9F047089D04468C46002B40F0838082
:100210008A42174647D9B2FA82F242B1C2F12000AF
:1002200024FA00F09140974040EA010C94404FEAD4
:100230001748230CBCFBF8F61FFA87FE08FB16C113
:1002400043EA014306FB0EF1994209D9FB1806F176
:10025000FF3080F01981994240F21681023E3B4402
:100260005B1AA4B2B3FBF8F008FB103344EA034472
:1002700000FB0EFEA64509D93C1900F1FF3380F0C2
:100280000581A64540F2028102383C4440EA06401E
:10029000A4EB0E0400261DB1D4400023C5E90043A1
:1002A0003146BDE8F08702B9FFDEB2FA82F2002AD9
:1002B00050D1CB1B4FEA174E1FFA87F80126B3FB2C
:1002C000FEFC210C0EFB1C3341EA034108FB0CF33E
:1002D0008B4207D979180CF1FF3002D28B4200F221
:1002E000E9808446C91AA3B2B1FBFEF00EFB1011DF
:1002F00043EA014408FB00F8A04507D93C1900F186
:10030000FF3302D2A04500F2D9801846A4EB0804BE
:1003100040EA0C40BFE78B4209D9002D00F0B180C4
:100320000026C5E9000130463146BDE8F087B3FA42
:1003300083F6002E4AD18B4202D3824200F2B8806B
:10034000841A61EB030101208C46002DA8D0C5E979
:10035000004CA5E7C2F1200320FA03F6974001FA0A
:1003600002F04FEA174ED9403043030CB1FBFEF6C2
:100370001FFA87F80EFB161143EA014306FB08F14A
:10038000994204FA02F409D9FB1806F1FF3C80F007
:100390008D80994240F28A80023E3B445B1A81B2D2
:1003A000B3FBFEF00EFB103341EA034100FB08F300
:1003B0008B4207D9791800F1FF3C73D28B4271D977
:1003C00002383944CB1A40EA064678E7C6F1200CD9
:1003D00003FA06F422FA0CF31C4320FA0CF701FA94
:1003E00006F34FEA144E21FA0CF11F433B0CB1FB0C
:1003F000FEF91FFA84F80EFB191143EA014109FBCB
:1004000008FA8A4502FA06F200FA06F308D96118DA
:1004100009F1FF3048D28A4546D9A9F102092144A1
:10042000A1EB0A01BFB2B1FBFEF00EFB101147EACF
:10043000014700FB08F8B84507D9E71900F1FF317B
:100440002ED2B8452CD90238274440EA0940A7EB00
:100450000807A0FB02894F45C64649461AD317D064
:100460005DB1B3EB0E0267EB010707FA0CFCF2403B
:100470004CEA0202F740C5E9002700263146BDE8F4
:10048000F0872E4628460BE70646E9E61846FDE6C5
:100490004345E5D2B8EB020E69EB04010138DFE712
:1004A0000846D2E760468DE78146B9E7664675E7BC
:1004B00030464AE7ACF1020C394413E702383C44B9
:1004C00024E700BF704700BF70B5002394B0CDE9AA
:1004D0000A33CDE90C33CDE90433CDE906332149A4
:1004E00001930393086C204A40F080500864096C23
:1004F00001F08051019101990293136843F4804304
:100500001360136803F48043029301224FF4803395
:100510004FF480000224062108920993A8220723A1
:100520000F9008A8CDE91012029D0E941294139317
:1005300001F0B0FD08B172B6FEE703460F264FF496
:10054000A0554FF4805203A80521CDE9065204942A
:100550000593039601F0BAFF08B172B6FEE714B036
:1005600070BD00BF003802400070004008B502F0C6
:10057000F3F9FFF7A9FF04F017FA04F0ABFA04F05F
:1005800001FB00F023F803F00BF9FEE70368B3F179
:10059000804F00D0704702F0F9B900BF72B6FEE795
:1005A00008B500F029F8012003F02CF9FBE700BFA3
:1005B000044B036010B48023034C0C605DF8044BC3
:1005C00013607047A0030020A001002030B5084D43
:1005D0000FCD89B001AC0FC495E8070084E807008F
:1005E000002101A803F0E2F8024B186009B030BD09
:1005F000184D00086843002008B518491848002223
:1006000003F09AFB70B91749154803F0A9FB88B9A4
:100610001549134804F090F9A0B9114803F0BAFB4A
:10062000B8B908BDFFF7BAFF0E490D4803F098FBB3
:100630000028EDD0FFF7B2FF0B49094804F07CF920
:100640000028EAD0FFF7AAFF054803F0A3FB002823
:10065000E7D0BDE80840FFF7A1BF00BF00000020C1
:100660006C430020740000205000002070B5036827
:1006700088B00024B3F1A04FCDE90344CDE905448F
:10068000079401D008B070BD184D01942B6B184829
:1006900043F001032B632B6B059403F001030193DB
:1006A0004FF4E052022303A90392049303220A2386
:1006B000CDE90623019E01F0DFFF6B6B43F0800361
:1006C0006B6302946B6C43F480436B646B6C03F458
:1006D00080432246029305214320029B02F0F6F854
:1006E000432002F02BF908B070BD00BF0038024073
:1006F0000000024000F57171D0F8040403F05CBB07
:10070000C1EBC10300EB8303D0F80404D3F8082243
:1007100003F082BBC1EBC10300EB8303D0F80404F8
:100720009A6C03F0ADBB00BFD0F8040403F046BCE4
:10073000C16810B5044611B102290AD10121D4F8CB
:10074000040403F01FFCD4F80404BDE8104003F0D7
:10075000EDBBFFF723FF0121F1E700BF10B5044611
:10076000D0F8040403F012FC2268D2F8003E43F0F3
:100770000103C2F8003E236A23B1034A136943F020
:100780000603136110BD00BF00ED00E0D0F80404C3
:1007900003F008BCD0F8040403F038BCD0F804041B
:1007A00003F020BCD0F8040403F044BCD0F80404E7
:1007B00003F042BC02780AB10020704738B5154BEF
:1007C0000221C3F804044FF0A0450424C0F8C43249
:1007D0001846C3E90722C3E90B22C3E900541A6192
:1007E0005A62D960996100F0C5F978B98021094849
:1007F00000F0F4FE40220021064800F0CBFE8022EB
:100800000121044800F0C6FE002038BDFFF7C6FEF7
:10081000ECE700BF3C46002008B5D0F8C40200F069
:1008200035FA032896BF024B0320185C08BD00BFB1
:10083000404D000810B51446D0F8C4021A462346AD
:1008400000F06EFD032896BF014B0320185C10BD1D
:10085000404D000808B5D0F8C40200F097FD032809
:1008600096BF024B0320185C08BD00BF404D000836
:1008700008B5D0F8C40200F00FFE032896BF024B63
:100880000320185C08BD00BF404D000808B5D0F833
:10089000C40200F045FE032896BF024B0320185CFB
:1008A00008BD00BF404D00080A06D0F8C43206D487
:1008B000C1EBC10103EB810191F8FE01704701F02A
:1008C0007F01C1EBC10103EB810191F83E0070474C
:1008D00008B5D0F8C40200F00FFD032896BF024B04
:1008E0000320185C08BD00BF404D000808B5D0F8D3
:1008F000C40200F0ADFD032896BF024B0320185C34
:1009000008BD00BF404D000808B5D0F8C40200F093
:100910006DFD032896BF024B0320185C08BD00BF85
:10092000404D0008D0F8C40200F088BD0048704770
:10093000F4030020704700BF122301480B8070476A
:100940001C000020042301480B8070473000002069
:100950000023F0B452004F1C1E46B0F1204F4FEA66
:10096000107404F130052ABF3734CD54CC54FE54F2
:1009700002339A424FEA0010EFD1F0BC704700BF3B
:100980000B4A0C4B10681B681A22C0180A8001D150
:100990000948704710B5094B09491C680822FFF740
:1009A000D7FF204607490422FFF7D2FF024810BDB7
:1009B000107AFF1F187AFF1F34000020147AFF1FDF
:1009C000360000204600002010B5044C04480A46BA
:1009D000214603F0C9FD204610BD00BF444A002057
:1009E000444D000810B5044C04480A46214603F063
:1009F000BBFD204610BD00BF444A0020584D0008F2
:100A000010B5044C04480A46214603F0ADFD2046CB
:100A100010BD00BF444A0020704D000810B5044CC2
:100A200004480A46214603F09FFD204610BD00BF42
:100A3000444A00207C4D0008002070470020704789
:100A40000020704710B5054C0146204603F088FF92
:100A5000204603F08FFF002010BD00BF6C43002034
:100A600010B5064C06490022204603F06DFF0549EB
:100A7000204603F075FF002010BD00BF6C4300202E
:100A800044540020444C0020FEE700BFFEE700BFB6
:100A9000FEE700BFFEE700BFFEE700BF704700BFF4
:100AA000014802F001B900BF445C0020014800F099
:100AB0000DB900BF3C46002082B00E4B00220092D0
:100AC000596C41F480415964596C01F480410091A2
:100AD00000990192196C41F0805119641B6C03F06C
:100AE00080530193019B0F216FF0010002B001F0D0
:100AF000EDBE00BF0038024030B5014689B000228B
:100B00001C2001F0E3FE1C2001F018FF0025164B0D
:100B100002951A6C154C42F001021A641B6C03F02A
:100B2000010301A9029303A8029B01F083FD01F0D8
:100B300071FD0F4A25614300A2FB03239B0C013B7F
:100B40004FF0804140F2E7322046C4E90135216090
:100B5000E26002F0B5F910B1012009B030BD2046C5
:100B600002F05EF809B030BD00380240445C00205D
:100B700083DE1B43F0B58BB0002800F0838090F833
:100B8000BD330468054603F0FF02002B74D02046F5
:100B9000032385F8BD33E36B2E4613F4807308BF3F
:100BA0002B6100F0FFFD56F810CB37460FCF6C4697
:100BB0000FC40FCF0FC497E8030084E803002F1D74
:100BC00097E80E00604600F029FD044630B101248C
:100BD0000223204685F8BD330BB0F0BD01462868DE
:100BE00000F0E8FD686858B322464FF0010E214638
:100BF000C2EBC20305EB830302F1010C83F83C2036
:100C0000A3F842205FFA8CF28242C3E9111183F803
:100C10003DE083F83F101965EAD30022C4EBC4031A
:100C200005EB8303611C83F8FC41CCB28442C3E929
:100C3000812283F8FD2183F8FF21C3F81022EDD330
:100C40000FCE6C460FC40FCE0FC496E8030084E8A5
:100C5000030097E80E00286800F0C4FD0446002851
:100C6000B5D1012385F83800286885F8BD3301F037
:100C700091F920460BB0F0BD80F8BC23FFF7F6FCDD
:100C8000286885E7012420460BB0F0BD10B590F828
:100C9000BC33012B0446006816D0A36A012293429C
:100CA00084F8BC2308D000F075FD206801F064F9D9
:100CB000002084F8BC0310BDA3699342F3D0836B7A
:100CC00043F480338363EEE7022010BD2DE9F04F3B
:100CD000066887B00446304601F09CF910B107B0B1
:100CE000BDE8F08F8346206801F062F90028F6D055
:100CF000206801F05DF910F0020F20681EBF436903
:100D000003F00203436101F053F910F0100F206863
:100D100012D0836923F010038361356AC5F343431E
:100D2000022B05F00F0700F04F82062B00F0A88180
:100D3000836943F01003836101F03AF910F4002F46
:100D4000206840F0C08001F033F910F4802F206853
:100D50005AD101F02DF9002842DB206801F028F972
:100D6000010532D4206801F023F9C30400F1258184
:100D7000206801F01DF910F4005F206840F0068142
:100D800001F016F9070700F1F880206801F010F96A
:100D9000C60200F1E880206801F00AF9850200F13E
:100DA000D880206801F004F9400000F1C980206873
:100DB00001F0FEF8410792D523685D686A0700F1EB
:100DC00025825A682A435A6089E7D6F80838DA0734
:100DD00000F118822068436903F400634361C2E7AD
:100DE000D6F8043823F00103C6F8043894F8F43335
:100DF000012B00F03E812046FFF7C8FC20684369C4
:100E000003F000434361A9E701F0DEF88146206862
:100E1000B9F1000F9DD006F51063CDE902362546E5
:100E20004FF0000ACDF810B007E05FEA59090AF167
:100E3000010A05F11C0500F0388119F0010FF4D00A
:100E40005FFA8AF7394601F0D1F8C307064619D58B
:100E5000039B2169D3F834084FF0010C0AF00F020C
:100E60000CFA02F220EA0200029AC3F8340802EBFC
:100E70004A126145C2F808C000F0CD8139462046CB
:100E8000FFF748FC300704D5029B03EB4A13082206
:100E90009A60F10604D5029B03EB4A1310229A6074
:100EA000720604D5029B03EB4A1340229A60B307F3
:100EB00004D5029B03EB4A1302229A60300600F12C
:100EC00035812068B1E701F077F805462068002DEC
:100ED0003FF439AF06F5306304F501790027029637
:100EE0009A4606E06D0807F1010709F11C0900F0B8
:100EF000DA80E907F6D5FEB2314601F06DF880469A
:100F000018F0010F206840F0F08018F0080F40F052
:100F1000CF8018F0100F03D00AEB471310229A600D
:100F200018F0200F03D00AEB471320229A6018F420
:100F3000005FD7D00AEB47134FF400529A60D1E715
:100F40002046FFF72FFC2068436903F0804343618C
:100F50002EE720460021FFF71DFC2068436903F4BB
:100F6000001343611EE720460021FFF717FC2068AD
:100F7000436903F4801343610EE72046FFF7D4FB77
:100F80002068436903F008034361FFE601F046F877
:100F9000206800F00DFDE060256801F035FB227B44
:100FA0000146284600F07EFB2046FFF7C1FB206883
:100FB000436903F400534361E2E6D6F8043820683D
:100FC00023F001031021C6F8043800F0DFFC60684C
:100FD00006F5006500B306F510634FF67F319960A2
:100FE0001A6822F400121A601A6842F000621A604D
:100FF000C3F80812D3F8002222F40012C3F800222A
:10100000D3F800220BF1010B42F000628345C3F8D4
:10101000002203F12003E2D1EB69226B43F00113BC
:10102000EB61DAB96B6943F4005343F02B036B6156
:101030002B6943F00B032B61D6F80038217C206824
:1010400023F4FE63C6F8003804F5717200F0F6FF71
:101050002068436903F4805343618AE6D5F88430FD
:1010600043F00B03C5F884306B6C43F00B036B64E7
:10107000E2E7002184F8F413204600F0B3FABDE65D
:10108000082204F571713046C7EBC70700F0F8FE7F
:1010900004EB8702C5F30A13D2F8141220680B443C
:1010A000C2F8143244E6029E4DE6DDE9036B50E6D9
:1010B0000AEB471308229A60026C00EB47138C4836
:1010C000D3F8081B824203F5306340F2B6800A046D
:1010D00002D54FF400429A602046FFF70BFB2169CE
:1010E000012900F0D680206813E7D4F810C000F57D
:1010F00030620AEB4711012302EB47128B60BCF10F
:10110000010F036CD2F808E000F09C8079498B4213
:1011100000F0AF8027B9D4F81022002A00F0E28056
:1011200020463146FFF7ECFA2068EEE6D5E91413C5
:10113000D4F800808B4240463FF677AE08F5106B3E
:101140006A6CCDF814800BEB4A1BA1EB030C6245D3
:10115000DBF8186028BF6246B6B20332B6EB920FD6
:101160001BD282E0F9B1D5E911319E4228BF1E465B
:1011700094F810C0CDF800C0B3B200F06BFEDBF8FD
:101180001820A96C6B6D3144334492B20336B2EB34
:10119000960FA9646B6564D3296D8B42A1EB03069E
:1011A0003A464046DED3D4F80080059B012003F583
:1011B00000610AF00F02D3F8343800FA02F223EA91
:1011C000020340464B6330E647F6F0731D423FF49E
:1011D000AFADC7EBC70704EB8707C5F30A12D7F813
:1011E0000812304600F04CFED7F80822D7F8143227
:1011F0002068C5F30A152A442B44C7F80822C7F80B
:10120000143295E52046FFF7A9FAE3E52046FFF7FB
:10121000CDFA2368D5E5D5E911231344AB64BAF1BF
:10122000000F7FF42BAE236D002B7FF427AE2068D8
:1012300004F5717200F002FF20E62046FFF75AFA2B
:10124000206866E61EF0080F1DD029498B427FF604
:101250005CAE1EF4004F3FF458AE4FF40043936071
:1012600053E6D4F80080296D40468B42FFF4DDAD93
:101270009BE71EF4004FF0D11EF0200F3FF450AF5B
:10128000202191604CE71EF0200F08D020239360AE
:101290003BE6206804F5717200F0D0FE23E71EF0F3
:1012A000280F7FF432AE12498B4202D91EF4004F50
:1012B000D3D1D9E900311269C2F312029A1A194442
:1012C000C9F81020C9F80410002F7FF429AFD4F812
:1012D0001022002A7FF424AF04F57172012100F07E
:1012E000ADFE1DE704F57172394600F0A7FE17E761
:1012F0000A30544F0A31544F90F8BC23012A0DD0C4
:1013000010B50122044680F8381080F8BC2300682C
:1013100000F022FE002084F8BC0310BD02207047BC
:1013200070B501F00F0511F0800FC5EBC501064641
:1013300000EB81014FF01C041ED1002004FB05646A
:1013400081F8FD0104F5FE7148780D708A60CB705C
:1013500000B1CD80022B04BF00230B7196F8BC3383
:10136000012B11D00123306886F8BC3300F02CFB30
:10137000002086F8BC0370BD012004FB056481F8E1
:101380003D0004F13C01DFE7022070BD01F00F03D6
:10139000C3EBC30211F0800F10B500EB82020446CC
:1013A0004FF01C0115D101FB034101F5FE71002036
:1013B00082F8FD010B7094F8BC33012B14D001238B
:1013C000206884F8BC3300F04BFB002084F8BC0399
:1013D00010BD01FB03413C31012082F83D000B7040
:1013E00094F8BC33012BEAD1022010BD38B501F0CE
:1013F0000F05C5EBC50400EB84040021C4F80822E6
:10140000C4F8141284F8FD11C4F8103284F8FC51A9
:1014100003691C2101FB0501012B08BFC4F80C2244
:10142000006801F5FE71DAB21DB900F091FC0020F0
:1014300038BD00F077FB002038BD00BF01F00F0180
:10144000C1EBC10100EB8101D1F81402704700BF6C
:1014500070B501F00F05C5EBC50400EB8404012154
:101460000026A26484F83D10236584F83C5066652C
:1014700003691C2101FB0501012B08BFE264006820
:101480003C31DAB21DB900F063FC002070BD00F001
:1014900049FB002070BD00BF38B5436801F00F055F
:1014A0009D4233D80B0604461CD4C1EBC10300EBAC
:1014B00083031C2000FB0141002201F5FE7183F82B
:1014C000FD2101230D708B7094F8BC239A421BD030
:1014D000206884F8BC3300F0E5FCCDB1002084F82E
:1014E000BC0338BDC5EBC5031C2101FB050100EBA6
:1014F000830301223C3183F83D2001230D708B7062
:1015000094F8BC239A42E3D1022038BD012038BDB3
:10151000217C206804F5717200F090FDDEE700BFC9
:10152000426838B501F00F03934230D8C3EBC302D1
:1015300011F0800F044600EB82024FF01C0117D11E
:1015400001FB034101F5FE710020002582F8FD0139
:101550000B708D7094F8BC33012B16D001232068DA
:1015600084F8BC3300F0CCFC84F8BC53284638BD6A
:1015700001FB03413C310120002582F83D000B7046
:101580008D7094F8BC33012BE8D1022038BD0120C6
:1015900038BD00BF30B405686B6A29B943EA02431D
:1015A000AB62002030BC7047A86A4C1E03EB1040B1
:1015B0000BD0002303F1400105EB810101334968A1
:1015C000DBB2A34200EB1140F4D3403405EB8404BA
:1015D00040EA02406060002030BC70470368002091
:1015E00059627047704700BF0B4B01E0013B10D0C0
:1015F0000269002AFADA0369074A43F0010303612A
:1016000001E0013A05D0036913F00103F9D118464E
:1016100070470320704700BF400D030084B070B5D1
:101620000A9E05AD012E85E80E00044622D1836B8B
:10163000119A23F480338363C36823F4840323F073
:101640004003C360C368012A23F44013C36023D05E
:101650002046FFF7C9FF089B012B07D1A36843F081
:101660000603A360A36843F02003A360BDE87040B5
:1016700004B07047C36843F04003C360FFF7B4FF92
:101680000E9B23B9A36B43F48033A363E3E7A36BFF
:1016900023F48033A363DEE7C36843F48013C3609D
:1016A000D6E700BF022A0AD04FF41051C26822F4D4
:1016B0007052C260C3680B43C36000207047264B62
:1016C000264A0B44934232D9254B264A0B44934277
:1016D00030D9254AA1F57403A3F5105393422CD9B0
:1016E000224AA1F18373A3F5E743934228D3204B09
:1016F000204A0B44934226D91F4B204A0B44934265
:1017000024D31F4B1F4A0B449342CDD31E4AA1F151
:10171000B773A3F5585393421BD31C4B1C4A0B447D
:10172000934234BF4FF4E0514FF4C051BEE74FF441
:101730007051BBE74FF46051B8E74FF45051B5E733
:101740004FF44051B2E74FF43051AFE74FF420511E
:10175000ACE74FF40051A9E7405327FFFF340C00DA
:10176000401E1BFF3F420F007F4F120020D6130088
:1017700060B6E5FE5FE3160000D3CEFE40771B00A7
:10178000C05BB3FEC091210020753800E05459FEC3
:10179000E09C4100034600209A6842F001029A60F2
:1017A000704700BF034600209A6822F001029A6049
:1017B000704700BF08B5C368012923F0C043C36068
:1017C0000BD041B9C36843F08043C360322001F0BD
:1017D000EFF8002008BD012008BDC36843F00053A6
:1017E000C360F3E784B02DE9F04308AC84E80E0051
:1017F0000022129D03460C46104602F1400103EB05
:10180000810101320F2A4860F7D1002D40F0A080FD
:10181000D3F8042842F00202C3F804289A6B42F479
:1018200000129A639A6B22F400229A639A6B22F454
:10183000802203F500669A630022C3F8002E0D9AF9
:1018400031683160012A00F08E80326842F0030274
:1018500032604FF484621A614A4A02E0013A00F0B1
:101860008C80186910F02000F8D110221A61454AC6
:1018700002E0013A00F083801969C906F9D4002119
:1018800031617161F161F4B18C4603F510624FF082
:1018900090484FF000694FF67F3E0AE0C2F800C062
:1018A0000131A142C2F810C0C2F808E002F12002E2
:1018B0002ED01768002FF1DA11B1C2F80080EFE7DF
:1018C000C2F80090ECE732690B9922F48072326121
:1018D00000246FF080429C615A6119B99A6942F004
:1018E00010029A619C69284A0E9922439A6119B1A3
:1018F0009A6942F008029A61012D05D19A6942F075
:10190000804242F004029A61BDE8F04304B070479F
:1019100000218C4603F530624FF090484FF000698B
:101920004FF67F3E0AE0C2F800C00131A142C2F882
:1019300010C0C2F808E002F12002C4D01768002FDE
:10194000F1DA11B1C2F80080EFE7C2F80090ECE7DD
:101950009A6B22F400129A639A6B42F400229A6303
:1019600003F5006668E70A9A12B93268326070E7D8
:10197000326842F0010232606BE7012075E7012016
:101980007DE700BF400D030000383C80890141F035
:101990002001064A016101E0013A05D0036913F014
:1019A0002003F9D11846704703207047400D03000B
:1019B000D0F8083813F0060004D013F0020F14BF5B
:1019C00002200F20704700BF70B44B780A78012BBB
:1019D00022D002F00F054FF48033AB40D0F81C58F2
:1019E00000F500642B4300EB4210E361D0F8003BAC
:1019F0001B040ED48B68D0F8004BCA78C3F30A03DB
:101A0000234343EA824343F0805343F40043C0F846
:101A1000003B002070BC7047D0F81C6802F00F0437
:101A200000F50065A340334300EB4210EB61D0F8B2
:101A300000391C04EDD48B68D0F80049C978C3F391
:101A40000A03234343EA814343EA825242F080522D
:101A500042F40042C0F8002970BC0020704700BF6B
:101A600030B44A780B78012A00EB43152BD0D5F817
:101A7000002B002A1ADBD0F83C4828494FF480326A
:101A800003F00F0302FA03F324EA0304C0F83C480E
:101A9000D0F81C2822EA0303C0F81C38D5F8003B14
:101AA0001940C5F8001B002030BC7047D5F8002B4A
:101AB00042F00062C5F8002BD5F8002B42F08042BE
:101AC000C5F8002BD7E7D5F80029002A0BDAD5F89E
:101AD000002942F00062C5F80029D5F8002942F03B
:101AE0008042C5F80029D0F83C480D49012203F096
:101AF0000F0302FA03F324EA0304C0F83C48D0F8C9
:101B00001C2822EA0303C0F81C38D5F80039194014
:101B1000C5F80019002030BC704700BF0078F3EF13
:101B2000007833EC2DE9F0434D780C78012D53D03B
:101B300000EB44144D69D4F8106BF60CF604C4F8AD
:101B4000106BD4F8106B26F0FF5626F4C01604F57F
:101B500030631E617DB38E687C4FD3F810C035446E
:101B6000013DB5FBF6F507EAC54747EA0C071F61DB
:101B7000ADB206FB05F51E69C5F312053543012A12
:101B80001D6124D0CB78012B0CD1D0F8083813F488
:101B9000807FD4F8003B0CBF43F0005343F08053E8
:101BA000C4F8003BD4F8003B43F00443C4F8003BC6
:101BB0000020BDE8F0838D681E69C5F3120535432A
:101BC0001D611D69012A45F400251D61DAD1CA682D
:101BD000002AD7D05A61D5E74E69002E40D000EBDD
:101BE000441ED1F80890DEF810C9584F4FEADC4C7B
:101BF0004FEACC4CCEF810C9DEF8108928F0FF5817
:101C000028F4C018CEF81089DEF8108906EB090C0C
:101C10000CF1FF3CBCFBF9FC07EACC4747EA08079C
:101C2000CEF81079DEF810C9C6F3120747EA0C07A0
:101C3000CEF81079CF78012F0EF5106355D0012A18
:101C40006FD0DEF8003943F00443CEF80039D0F805
:101C5000343804F00F04A5401D43C0F83458A7E7FA
:101C600000EB441C012ADCF8105925F0FF5525F43F
:101C7000C015CCF81059DCF8105945F40025CCF803
:101C80001059DCF810594FEAD5454FEAC545CCF854
:101C900010590CF51063CF7838D0DCF80059012FBB
:101CA00045F00445CCF8005982D1D0F8085815F415
:101CB000807F1D680CBF45F0005545F080551D60C4
:101CC000002A7FF475AFB6B20336B6083FF470AFA2
:101CD000CB6800EB043003EB860100F5805053F82D
:101CE000042B02608B42FAD162E71D6925F0C045E2
:101CF0001D611D69012A45F000551D6116D0DEF8F1
:101D0000005945F00445CEF80059CEE70A695AB9A2
:101D1000012F0ED01A6842F004421A600020BDE87C
:101D2000F0830A69002AF5D05A61F1E70A69002AAE
:101D3000FAD1D0F8082812F4807F1A680CBF42F05C
:101D4000005242F080521A60E4E700BF0000F81F22
:101D5000F0B44B780C78012B2DD000EB44104D697A
:101D6000D0F8104BE40CE404C0F8104BD0F8104B42
:101D700024F0FF5424F4C01400F530631C618C6817
:101D800005B14C611D6945F400251D611D69C4F351
:101D900012042C43012A1C6108D0D0F8003B43F008
:101DA0000443C0F8003B0020F0BC7047CA68002A1A
:101DB000F3D05A61F1E74D6900EB441303F510636A
:101DC0006DB31E698F68F60CF6041E611E6926F05D
:101DD000FF5626F4C0161E611E69BD4246F4002659
:101DE00088BF4F611E611E6988BF3D46C5F312055D
:101DF0003543012A1D6122D01A68496942F0044224
:101E00001A600029CFD0D0F8343804F00F02012432
:101E100094401C43C0F834480020F0BC70471D6952
:101E200025F0FF5525F4C0151D611D6945F40025F9
:101E30001D611D69ED0CED04012A1D61DCD10A69EB
:101E400002B15A611A6842F004420020F0BC1A60E4
:101E5000704700BF10B49DF8044064B903339B0879
:101E600009D0013200EB023001EB830351F8042B5F
:101E700002608B42FAD100205DF8044B704700BF2E
:101E8000033292080CD010B400F5805401EB8200AC
:101E9000236841F8043B8142FAD15DF8044B704756
:101EA000084670474A780B78012A00EB43100CD0A3
:101EB000D0F8002B002A00DBD3B9D0F8003B43F464
:101EC0000013C0F8003B00207047D0F80029002A1A
:101ED00006DB2BB1D0F8003923F08043C0F800397D
:101EE000D0F8003943F40013C0F8003900207047DF
:101EF000D0F8003B23F08043C0F8003BDDE700BF93
:101F00004A780B78012A00EB431013D0D0F8003B3D
:101F100023F40013C0F8003BCB78023B012B01D91E
:101F200000207047D0F8003B43F08053C0F8003BDE
:101F300000207047D0F8003923F40013C0F80039AE
:101F4000CB78023B012BEBD8D0F8003943F080531B
:101F5000C0F8003900207047D0F8003823F4FE6341
:101F6000C0F80038D0F80038090101F4FE611943C7
:101F7000C0F8001800207047D0F8003E23F003039B
:101F8000C0F8003ED0F8043823F00203C0F804384B
:101F900000207047D0F8003E23F00303C0F8003E55
:101FA000D0F8043843F00203C0F80438002070472A
:101FB0004269806910407047D0F8183800F5006019
:101FC000C0691840000C7047D0F8183800F5006060
:101FD000C069184080B2704700EB411100F5006005
:101FE000D1F8082B40691040704700BF10B4D0F8FA
:101FF0001048D0F8343800EB411001F00F0100F523
:102000001060CB40DB018068DBB2234318405DF8F1
:10201000044B7047406900F001007047D0F8003968
:1020200023F4FF6323F00703C0F80039D0F8043825
:1020300043F48073C0F804380020704710B4144B88
:10204000046C9C421AD800F53060002303610369D8
:1020500043F400230361036943F018030361036938
:10206000012943F0C043036104D14261036843F096
:102070008023036000205DF8044B7047D0F8003BDC
:10208000002B00F53060E0DA00205DF8044B70476B
:102090000A30544F002800F0A5812DE9F041036873
:1020A000DD0782B004462FD5AC498A6802F00C02E5
:1020B000042A00F0EC808A6802F00C02082A00F082
:1020C000E2806368B3F5803F00F0EB80B3F5A02FAA
:1020D00000F07881A14D2A6822F480322A602A68B3
:1020E00022F480222A60002B40F0E08000F05AFCAD
:1020F000064605E000F056FC801B642800F20081D3
:102100002B689B03F6D423689F0728D5934A9168D0
:1021100011F00C0F00F09080916801F00C0108297B
:1021200000F08680E368002B00F006818C4B8B4E1C
:1021300001221A6000F036FC054605E000F032FC92
:10214000401B022800F2DC8033689807F6D533681C
:10215000226923F0F80343EAC203336023681A07B5
:1021600052D458072FD57D4A136C13F080537ED07C
:1021700000257C4E3368D90540F1B280A368012B5D
:1021800000F0C280052B00F02F81744E326F22F0D8
:1021900001023267326F22F004023267002B40F0F6
:1021A000B88000F0FFFB41F28838074605E000F0F8
:1021B000F9FBC01B404500F2A380336F9807F6D4AB
:1021C000002D40F00981A069D0B1644DAB6803F0E7
:1021D0000C03082B00F0CC80634B002202281A600D
:1021E00000F00C8100F0DEFB2C46054605E000F017
:1021F000D9FB401B022800F2838023689B01F6D4A0
:10220000002002B0BDE8F081636903B3574B534E21
:1022100001221A6000F0C6FB054604E000F0C2FB94
:10222000401B02286CD8736F9B07F7D5236898E78B
:10223000526856023FF576AF484A1268950743D573
:10224000E268012A40D0012002B0BDE8F081474A8F
:10225000424E136000F0A6FB054604E000F0A2FB2E
:10226000401B02284CD8736F9F07F7D4DEE7019319
:10227000136C43F080531364136C03F08053019389
:10228000019B012575E74A6850027FF51AAF334A72
:10229000126891037FF538AF6268002A7FF434AF8B
:1022A000D1E72E4A136843F48033136000F07AFBC1
:1022B0002A4E054604E000F075FB401B64281FD839
:1022C00033689A03F7D51EE7244920690A6822F08B
:1022D000F80242EAC0020A601A077FF542AF93E7AC
:1022E000336843F48073336000F05CFB0746336867
:1022F000DA053FF543AF00F055FBC01B0228F6D9C5
:10230000032002B0BDE8F081144A136F43F00103CB
:10231000136700F047FB114F064641F2883804E08E
:1023200000F040FB801B4045EAD83B6F9B07F7D588
:10233000002D3FF448AF4FE0094A084E136000F00B
:1023400031FB054604E000F02DFB401B0228D7D8E6
:1023500033689907F7D4236801E700BF00380240CB
:10236000000047420070004060004742800E474234
:1023700001283FF446AF6B68E26903F480019142A3
:102380007FF461AF226A03F03F0191427FF45BAFBB
:10239000616A47F6C0721A40B2EB811F7FF453AFF7
:1023A000A26A5208013A03F44031B1EB024F7FF4C4
:1023B0004AAFE26A03F07063B3EB026F14BF01200F
:1023C00000201EE7244B1A6842F480221A601A6823
:1023D00042F480321A6069E71F4A136C23F080537D
:1023E0001364F0E6012070471B4B1A6F42F00402A1
:1023F0001A671A6F42F001021A678AE700F0D2FAF0
:10240000064605E000F0CEFA801B02283FF678AFC2
:102410002B689901F6D4D4E90736D4E90902E16AB8
:10242000334343EA8013520843EA0163013A0B49FC
:10243000094E43EA024301226B600A6000F0B2FADF
:10244000044605E000F0AEFA001B02283FF658AF44
:1024500033689A01F6D5D3E600380240600047425F
:10246000174908B58B6803F00C03042B1BD0082B0D
:1024700017D14A684B6813F4800302F03F0214D16D
:1024800049681048C1F38811A1FB0001FDF7A0FEC7
:102490000B4B5B68C3F3014301335B00B0FBF3F00C
:1024A00008BD084808BD084808BD4B680648C3F386
:1024B0008813A3FB00010023FDF78AFEE8E700BFB5
:1024C000003802400024F400001BB700002800F090
:1024D0008780484A136803F007038B422DE9F041D7
:1024E0000D46044609D2CBB21370136803F00703FC
:1024F0008B4202D00120BDE8F0812368980714D5F3
:10250000590704D53C498A6842F4E0528A601A07A8
:1025100004D539498A6842F460428A603649A06825
:102520008A6822F0F00202438A60DF0721D56268E0
:10253000012A57D0931E012B2F4B1B684DD99907A9
:10254000D8D52D4EB36823F003031343B36000F0D6
:1025500029FA41F28838074604E000F023FAC01B4C
:10256000404544D8B368626803F00C03B3EB820FB4
:10257000F3D1204A136803F00703AB4206D9EBB24C
:102580001370136803F00703AB42B3D123685A07F3
:1025900006D51949E0688A6822F4E05202438A604D
:1025A0001B0707D5144A2169936823F4604343EA63
:1025B000C1039360FFF754FF0F4A104C9268104913
:1025C000C2F303120346A25C0E48D34000680B60BE
:1025D000FEF792FA0020BDE8F0819801B1D489E7B6
:1025E00001207047044B1B689E03AAD482E7032096
:1025F00081E700BF003C0240003802408C4D0008DB
:102600006C00002068000020014B1868704700BF74
:102610006C000020044B054A9B680549C3F38223E4
:102620000868D35CD8407047003802409C4D0008D1
:102630006C0000200E4B0F2202609A6802F0030229
:1026400042609A6802F0F00282609A6802F4E052F6
:10265000C2609B68DB0810B403F4E053054C0361CF
:1026600023685DF8044B03F007030B60704700BF5D
:1026700000380240003C02402DE9F04F8B46DFF865
:1026800014A20968DFF810C285B00023D94603E020
:102690000133102B00F0888001229A4002EA010BDE
:1026A0008A43F5D1D9F8045005F00302541E012CD9
:1026B0004FEA43077BD9032A40F0BA80BA40D4439B
:1026C00000940768009C3C402243EE000260DFD586
:1026D00000220392DAF8442042F48042CAF84420EF
:1026E000DAF8442023F0030404F1804402F4804229
:1026F00004F59C34039203F00306039AA768B6001E
:102700000F22B24027EA02025B4FB84220D007F501
:102710008067B84200F09180584FB84200F0928034
:10272000574FB84200F09380564FB84200F0948063
:10273000554FB84200F09580544FB84200F0968053
:10274000534FB8420CBF0727082707FA06F6324353
:10275000A260DCF800206FEA0B06EC0354BF3240A5
:102760004BEA0202CCF80020DCF80440AA0354BF74
:1027700034404BEA0404CCF80440DCF80840EF0293
:1027800054BF34404BEA0404CCF80840DCF80C2079
:10279000AC0203F1010354BF32404BEA0202102B9A
:1027A000CCF80C207FF478AF05B0BDE8F08F8668D8
:1027B0000324BC4026EA040ED9F80C60BE4046EA69
:1027C0000E068660D0F804E0C5F300162EEA0B0E64
:1027D0009E4046EA0E06E44300944660C668009CAC
:1027E00006EA040ED9F80860BE4046EA0E06022A40
:1027F000C66001D0BA4064E74FEAD30800EB88080E
:1028000003F0070ED8F8204001944FEA8E0E0F24F3
:1028100004FA0EF6019C24EA0606D9F81040019647
:1028200004FA0EF6019C2643BA40C8F8206048E737
:102830000324BC40E4430094D0E7012707FA06F6DE
:10284000324385E7022707FA06F6324380E703277B
:1028500007FA06F632437BE7042707FA06F6324307
:1028600076E7052707FA06F6324371E7062707FAE7
:1028700006F632436CE700BF000002400008024049
:10288000000C0240001002400014024000180240F8
:10289000001C024000380240003C014002B909041B
:1028A000816170470849CA6810B400024FF6FF04FE
:1028B000224000F4E063134343F0BF6343F400336A
:1028C0005DF8044BCB60704700ED00E0194BDB680E
:1028D000C3F3022330B4C3F10705042D03F104044C
:1028E00028BF0425062C19D9033B4FF0FF349C4028
:1028F00022EA04024FF0FF34AC4021EA040199407F
:10290000002841EA02010CDB00F1604000F5614063
:102910000901C9B280F8001330BC70470022134689
:10292000E8E7054B00F00F0009010344C9B219762E
:1029300030BC704700ED00E0FCEC00E0002807DB55
:1029400000F01F01034A400901238B4042F8203068
:10295000704700BF00E100E008B50B4B1A6842F475
:1029600000721A601A6842F480621A601A6842F4AF
:1029700080721A600320FFF795FF0020FEF7BCF875
:10298000FEF79AF8002008BD003C0240034A044BC1
:1029900011681B780B441360704700BF8C5C0020EB
:1029A00064000020014B1868704700BF8C5C002059
:1029B00038B50446FFF7F6FF631C054602D0044B0A
:1029C0001B781C44FFF7EEFF431BA342FAD338BD2C
:1029D00064000020002800F0B580F8B590F83D3084
:1029E000044603F0FF02002B00F0948023682422A9
:1029F00084F83D201A6822F001021A601A6842F435
:102A000000421A601A6822F400421A60FFF702FEC0
:102A100065684D4B9D424CD84C4B984278D9226802
:102A20004B4B5168A3FB006321F03F0141EA934106
:102A30005160116A9B0C21F03F0101330B4313627B
:102A4000D16901386B00B0FBF3F340F6FC70013341
:102A500021F44F41034221F0FF0160D104230B43D5
:102A6000D361D4E907351068216920F0C0002B43F9
:102A7000034313609068E568636920F4034020F025
:102A8000FF00294301439160D168A06921F0FF0153
:102A900003430B43D3601168002341F0010120255B
:102AA0001160236484F83D50236384F83E30184657
:102AB000F8BD284B98422BD9226825495668264FE5
:102AC000A1FB003126F03F0646EA91464FF496738B
:102AD000890C566003FB01F3A7FB0313116AA66878
:102AE0009B0921F03F0101330B431362D16921F4AB
:102AF0004F4121F0FF01AEB9013805EB4503B0FBB2
:102B0000F3F30133C3F30B03D3B143F40043A6E75C
:102B10000120F8BD80F83C2001F0FAFF66E7C3F31E
:102B20000B039CE705EB850303EB83030138B0FB44
:102B3000F3F30133C3F30B0313B143F440438EE7C4
:102B400001238CE701207047A08601007F841E00CE
:102B500083DE1B43FF083D00D34D621000285BD08D
:102B6000F8B5476A0446002F46D00023C0E9043375
:102B700094F85120002002F0FF01A062002A41D009
:102B8000D4E90135E168A66903F4827205F40445CD
:102B900023692A4301F400610A4303F002016369D7
:102BA0000A4303F001031A43E369216803F0380E76
:102BB00006F400731343022284F85120226A350C74
:102BC00043EA0E0302F0800605F004020D6807F0E8
:102BD000100733433A43034325F040050D600B6073
:102BE0004A60CB69002223F400630125CB61626552
:102BF00084F851501046F8BD4368B3F5827FB7D0D2
:102C0000C761B5E7204684F8501001F0DDFFD4E934
:102C1000097303F40050B3E701207047704700BF09
:102C200090F83D30012B2FD103681949022280F81A
:102C30003D20DA688B4242F00102DA6019D0B3F12C
:102C4000804F16D0134A934213D002F5806293420C
:102C50000FD002F5806293420BD002F57842934286
:102C600007D002F57052934203D0A2F594329342FA
:102C700004D19A6802F00702062A07D01A6842F0C7
:102C800001021A6000207047012070470020704741
:102C90000000014000040040704700BF704700BFC3
:102CA000704700BF704700BF03681A69910710B5ED
:102CB000044602D5DA6892075FD41A69500702D534
:102CC000DA68510746D41A69120702D5DA68100784
:102CD0002ED41A69D20602D5DA68D00618D41A6939
:102CE000D10702D5DA68D2075DD41A69100602D579
:102CF000DA6811065FD41A69520602D5DA685006FE
:102D000061D41A69910602D5DA68920643D410BDDF
:102D10006FF01001082219612277DB6913F4407FFC
:102D2000204664D0FFF7BAFF002223682277D6E757
:102D30006FF00801042219612277DB6999072046A8
:102D400052D1FFF7A9FF2046FFF7AAFF0022236810
:102D50002277BEE76FF004010222196122779B6996
:102D600013F4407F20463CD1FFF796FF2046FFF743
:102D700097FF002223682277A5E76FF00201012266
:102D8000196102779B699B0725D0FFF787FF002217
:102D90002368227791E76FF0200220461A61BDE890
:102DA000104000F0BBB86FF001021A612046FDF739
:102DB000EDFB236899E76FF080021A61204600F06E
:102DC000AFF8236897E76FF040021A612046FFF7DB
:102DD00069FF236895E7FFF75FFF2046FFF760FF75
:102DE000D5E7FFF75BFFC4E7FFF758FFAEE7FFF754
:102DF00053FF2046FFF754FF96E700BF2F4A0368B2
:102E0000904270B443D0B0F1804F34D0A2F57C42F0
:102E1000904230D002F5806290422CD002F5806260
:102E2000904228D002F57842904230D002F570529C
:102E3000904224D002F58062904220D002F5806258
:102E400090421CD0A2F59832904218D002F58062D0
:102E5000904214D002F58062904210D04D698C6887
:102E60000A6823F080032B4303600123C46282625B
:102E700070BC436170474A6823F070031343CE6807
:102E80004D698C680A6823F440733343E9E74D6861
:102E9000CC684A6923F070032B4323F44073234327
:102EA00023F08003134303608B68C3620B68836263
:102EB0000B690363012370BC43617047000001404C
:102EC00050B310B590F83D30044603F0FF02F3B163
:102ED0000223214684F83D3051F8040BFFF78EFFA2
:102EE000012384F8463084F83E3084F83F3084F87B
:102EF000403084F8413084F8423084F8433084F81C
:102F0000443084F8453084F83D30002010BD80F80E
:102F10003C20FFF783FEDBE701207047704700BFCE
:102F2000704700BF034AD2F8883043F47003C2F8F8
:102F30008830704700ED00E000F108034FF0FF31EA
:102F40000022C0E90333816002604360704700BF24
:102F500000230361704700BF4368026810B49C6897
:102F60008C609C684B600132616099605DF8044B35
:102F700008610260704700BF30B40D686B1C10D050
:102F800000F108031C465B681A68AA42FAD9026875
:102F90004B60013299608C606160086130BC0260F6
:102FA000704704696368F2E7036910B4D0E901125D
:102FB0005C688A608442516008BF5A601A685DF894
:102FC000044B0021013A01611A601868704700BF84
:102FD0002DE9F041044600F08DFD384A384D136864
:102FE000013313602B68002B31D0364E33683BB36E
:102FF000E36A354A354F1168D7F800C034480131CB
:10300000116001229A4003EB830342EA0C0200EBB9
:103010008300211D3A60FFF79FFF00F08DFD3368AC
:1030200063B12A68E36AD26A9A4207D2294B4FF009
:1030300080521A60BFF34F8FBFF36F8FBDE8F081EE
:103040002A68E36AD26A9A4298BF2C60D1E72C6062
:103050001368012B02D0E36A1A4ECAE71C48DFF856
:10306000A8801D4F174EFFF767FF1C48FFF764FF4E
:103070001B48FFF761FF1B48FFF75EFF1A48FFF789
:103080005BFF1A48FFF758FF1948FFF755FF404606
:10309000FFF752FF3846FFF74FFF1648FFF74CFF88
:1030A0001548FFF749FF1548FFF746FF144B154A2F
:1030B000C2F800801F60E36A9BE700BFAC060020F7
:1030C0001406002008070020B8060020BC060020D7
:1030D0002006002004ED00E0D40600203406002085
:1030E000480600205C0600207006002084060020B0
:1030F00098060020F4060020200700200C0700207E
:103100001C06002018060020C0060020034A044BBD
:103110001268D268D26852681A6070471806002098
:10312000E80600202DE9F04383B002F180490C9DB0
:103130000A9F2C6BDDF82C8009F1FF398C4604EBDB
:10314000890901461A4629F00709BCF1000F36D05B
:103150000CF1FF3405F133060CF10F0C14F8013FAC
:1031600006F8013F23780BB16445F7D1002385F8B9
:103170004330062F28BF06270024C5E91174EF62EB
:10318000281DCDE90012C7F10707FFF7E1FE05F1A1
:103190001800FFF7DDFEEC64DDE90012AF612D6180
:1031A00085F850406D62484600F076FC2860B8F122
:1031B000000F01D0C8F8005003B0BDE8F08385F8D7
:1031C00034C0D6E790F8513063B1012B15D0022BF3
:1031D00012D04FF0500383F31188BFF36F8FBFF30A
:1031E0004F8FFEE710B50446006B00F0D9FB204678
:1031F000BDE8104000F0D4BB704700F0D1BB00BF69
:1032000080B5154C154E164D164FDFF85C904FF0FB
:10321000805813E000F06EFCF368D3F80CA00AF1BC
:103220000400FFF7C1FE2B68013B2B602368013BC4
:10323000236000F081FC5046FFF7C4FF2368002B99
:10324000E8D13B68012BF9D9C9F80080BFF34F8F53
:10325000BFF36F8FF2E700BFB00600202007002009
:10326000AC0600202006002004ED00E0F8B51B4B62
:103270001B4E1D6833680446181D0F46FFF794FE69
:1032800040B933681749D86A0B680122824023EAA3
:1032900002030B60631C17D033682C195C6007D3E2
:1032A000114B18683168BDE8F8400431FFF764BE7F
:1032B0000E4B186831680431FFF75EFE0C4B1A683C
:1032C000A24288BF1C60F8BD002FE5D031680948D4
:1032D000BDE8F8400431FFF73FBE00BF34070020CF
:1032E00014060020BC0600201C0600201806002042
:1032F000E80600200C0700202DE9F04F454B1E6822
:10330000013683B01E60DEB9434B1A68126842B1C1
:103310004FF0500383F31188BFF36F8FBFF34F8FCC
:10332000FEE73E4A18683E4914681C6010600A684F
:1033300001320A601B681B68002B5FD0FFF7E6FEB6
:10334000384D2B689E4242D3DFF8CC90D9F800303C
:103350001C68002C57D0344FDFF8D480DFF8D4A09D
:10336000002426E00191FFF71FFEDBF828200199D9
:103370000BF1180012B1FFF717FE0199DBF82C00D2
:10338000DAF800300122824000EB80001A4307EB9C
:103390008000CAF80020FFF7DFFDD8F80020D9F838
:1033A0000000DBF82C10D26A0368914228BF012488
:1033B00063B3D9F80030DB68D3F80CB0DBF8042035
:1033C0000BF1040196420846CCD22A6003E0164F66
:1033D000DFF85C800024D8F800301449DB6A03EB86
:1033E00083039B00FA580B68022A28BF0124002B94
:1033F0000CBF2046012003B0BDE8F08F094D4FF00F
:10340000FF332B609DE7084FDFF824804FF0FF3338
:103410002B60E0E734070020180600201C0600207F
:10342000EC060020E80600202006002038070020D7
:1034300014060020BC060020F0B587B0DDE90C655D
:103440000E9CBDB16CB154270597059F542F1AD01F
:103450004FF0500383F31188BFF36F8FBFF34F8F8B
:10346000FEE74FF0500383F31188BFF36F8FBFF374
:103470004F8FFEE74FF0500383F31188BFF36F8F38
:10348000BFF34F8FFEE72563022704AD0294009639
:1034900084F851700195059DFFF744FE2046FFF723
:1034A00097FD049807B0F0BD2DE9F043074685B0BD
:1034B000900015468846994600F0DCF9E0B10446D4
:1034C000542000F0D7F90646D8B104634FF0000C41
:1034D0000D9C86F851C001940C9C02964B462A46DE
:1034E000414638460094FFF71DFE3046FFF770FD59
:1034F000012005B0BDE8F0834FF0FF3005B0BDE816
:10350000F083204600F04CFA4FF0FF30F1E700BFA7
:1035100030B589B0002407AA06A905A8CDE905445D
:10352000FDF746F8DDE905120F480094CDE90121C9
:103530002346079A0D49FFF77FFF90B14FF05003E4
:1035400083F31188BFF36F8FBFF34F8F0848094A89
:10355000094B4FF0FF350121056011601C6000F040
:1035600065FB09B030BD00BF01320008A44D000862
:10357000E80600200807002034070020024A1368EC
:1035800001331360704700BFB40600202DE9F04FEF
:10359000404D2B6883B043B94FF0500383F311883B
:1035A000BFF36F8FBFF34F8FFEE700F0A3FA2B68D6
:1035B000013B2B602B68002B3FD1374B1B68002B46
:1035C0003BD0364F3B68002B3ED0DFF8E890DFF869
:1035D000E8A0DFF8E8B0324E4FF00108FB68DC6885
:1035E000211D04F118000191FFF7DEFC0199084646
:1035F000FFF7DAFCE06AD9F80020019908FA00F335
:1036000000EB800013430AEB8000C9F80030FFF79D
:10361000A3FCDBF80030E26ADB6A9A4228BFC6F8F6
:1036200000803B68002BD9D11E4B1B681B6803BB75
:103630001D4B4FF0FF321A6007E0002400F07CFAC7
:10364000204603B0BDE8F08F154E184F3C68A4B17A
:103650004FF0010806E0FFF74FFE08B1C6F8008002
:10366000013C09D02B68002BF5D03B6801333B604F
:10367000F6E7FFF74BFDE8E73C603368002BDCD052
:103680000B4B4FF080521A60BFF34F8FBFF36F8F19
:103690000124D3E7B4060020AC060020F406002085
:1036A0003807002018060020E8060020F006002059
:1036B00004ED00E0BC0600202006002014060020D7
:1036C00008B598B10E4B196841B14FF0500383F320
:1036D0001188BFF36F8FBFF34F8FFEE71A68013277
:1036E0001A60FFF7C3FDFFF751FF38B9054B4FF0E4
:1036F00080521A60BFF34F8FBFF36F8F08BD00BFBA
:10370000B406002004ED00E0054B1B680BB9FFF781
:10371000F3BD044A1368013313600020704700BFF3
:10372000B4060020F0060020184B1B681BB1184B94
:1037300001221A6070471649164A0B601368B3FAE3
:1037400083F3DBB2C3F11F0303EB830312499A0037
:1037500001EB8303885840B94FF0500383F311887D
:10376000BFF36F8FBFF34F8FFEE710B45C6802F1B9
:10377000080062685A6001448A4204BF52685A6075
:10378000064BD2685DF8044B1A607047B4060020FF
:1037900038070020BC060020200600201406002068
:1037A00008B5FFF7B5FE002008BD00BF70B544693D
:1037B00086B002460B468CB186697EB1B0F90850DE
:1037C0001269842D14BF03350025D0E90010CDE91E
:1037D00001460095FFF730FE06B070BDB2F9084013
:1037E000842C14BF0334002405ADD2E90010128AE2
:1037F000CDE90045FFF758FE01280CBF05980020D1
:1038000006B070BD08B5012838BF0120FFF758FF8A
:10381000002008BD10B4154B1A461B688342FBD329
:1038200051685418A0420AD041684418A3420DD0F0
:10383000904203605DF8044B18BF10607047406809
:10384000014410464418A3425160F1D1084C246849
:10385000A342EDD0D3E9003490422144036041609B
:103860005DF8044B18BF1060704700BF5443002040
:103870003C0700202DE9F041424F0446FFF77EFE51
:103880003B68002B39D0404B1D682C422FD174B3BC
:1038900004F1080361071CBF23F00703083333B3A7
:1038A000DFF8F480D8F800609E4220D337490C68D6
:1038B00003E0206820B12146044662689A42F8D3AA
:1038C0003868A04213D020680F680860D11A102908
:1038D00007F1080739D9E018420731D04FF05003FB
:1038E00083F31188BFF36F8FBFF34F8FFEE7FFF7AE
:1038F0004DFE00273846BDE8F081254B254E234D6F
:10390000580714BFDA1D1A4603F57053A3F10803D4
:1039100023F0070320483B6018BF22F0070211463E
:103920009A1A32600260184E0020C3E900006860F5
:103930004A604FF000420B60326029601546A4E7F0
:1039400041606360FFF766FF626812480168B61A5B
:103950008E42124938BF06600B68C8F800602A43DF
:1039600000200133626020600B60FFF70FFE7B07D1
:10397000C0D04FF0500383F31188BFF36F8FBFF3B4
:103980004F8FFEE73C0700204043002054430020B7
:103990004007002048430020444300204C430020BF
:1039A000E0B11B4A50F8043C1268134210B50446BB
:1039B0000BD050F8081C91B14FF0500383F31188DD
:1039C000BFF36F8FBFF34F8FFEE74FF0500383F3CA
:1039D0001188BFF36F8FBFF34F8FFEE7704723EA65
:1039E000020340F8043CFFF7C9FD0A4A54F8043CBE
:1039F0001168A4F108000B441360FFF70BFF064A9F
:103A00001368BDE8104001331360FFF7BFBD00BF6E
:103A100040430020444300205043002008480068F1
:103A2000006880F308884FF0000080F3148862B6C5
:103A300061B6BFF34F8FBFF36F8F00DF00BF000091
:103A400008ED00E0DFF80C00016841F4700101604E
:103A50007047000088ED00E00E4B1B6882B000222A
:103A60000133019208D04FF0500383F31188BFF364
:103A70006F8FBFF34F8FFEE74FF0500383F3118832
:103A8000BFF36F8FBFF34F8F019B002BFCD002B0B1
:103A9000704700BF7000002030B421F00101094CD4
:103AA00040F80C4C4FF080756FF0020340F8045C56
:103AB00040F8081C40F8202C40F8243C30BC443826
:103AC000704700BF593A00080000000000000000E5
:103AD000074B19680868B0E8F04F80F30988BFF316
:103AE0006F8F4FF0000080F311887047AFF30080B4
:103AF000140600204FF0500383F31188BFF36F8F3B
:103B0000BFF34F8F0A4A13680133012B136000D0B3
:103B10007047084B1B6813F0FF0FF9D04FF05003AC
:103B200083F31188BFF36F8FBFF34F8FFEE700BFA2
:103B30007000002004ED00E0084A136843B94FF01C
:103B4000500383F31188BFF36F8FBFF34F8FFEE7EE
:103B5000013B13600BB983F311887047700000209C
:103B6000EFF30980BFF36F8F154B1A681EF0100F2B
:103B700008BF20ED108A20E9F04F10602DE9090000
:103B80004FF0500080F31188BFF34F8FBFF36F8F5A
:103B9000FFF7CAFD4FF0000080F3118809BC1968D7
:103BA0000868B0E8F04F1EF0100F08BFB0EC108AA4
:103BB00080F30988BFF36F8F704700BFAFF30080B9
:103BC0001406002008B54FF0500383F31188BFF3AB
:103BD0006F8FBFF34F8FFFF797FD18B1034B4FF077
:103BE00080521A60002383F3118808BD04ED00E0C1
:103BF00030B4094A094D0A4B0A4C0B4800211160A8
:103C000029601B68A4FB03139B09013B0721036088
:103C100030BC1160704700BF10E000E018E000E029
:103C20006C000020D34D621014E000E0394B3A4A9A
:103C30001968914240D01A68384B9A4233D010B577
:103C4000374B384C1A78384982B0D2B2FF200192F3
:103C500018701B78DBB28DF803309DF803309DF8A7
:103C6000032003F05003072023701406086048BFA8
:103C700006220FD59DF803305B00DBB28DF80330D0
:103C80009DF803000006134602F1FF32F2D4032B25
:103C90001BD00B604FF0500383F31188BFF36F8F7D
:103CA000BFF34F8FFEE74FF0500383F31188BFF34C
:103CB0006F8FBFF34F8FFEE74FF0500383F31188F0
:103CC000BFF36F8FBFF34F8FFEE7019A1448174B76
:103CD000D2B24FF440740C6002701A6842F4700261
:103CE0001A601A6842F070421A60FFF781FF104BA9
:103CF00000241C60FFF7A6FE0E4A136843F0404301
:103D00001360FFF78BFEFFF70FFDFFF7A5FE2046C0
:103D100002B010BD00ED00E071C20F4170C20F4152
:103D200000E400E05C4300206043002020ED00E060
:103D30007000002034EF00E078B10023C0F8B83202
:103D4000C0F8C032C0F8CC3209B1C0F8B4120123B7
:103D5000027080F89C32FCF72DBD0320704700BF35
:103D600030B583B00024ADF8064079B1CB6AC0F815
:103D7000B81205463BB10DF106009847C5F8CC02D4
:103D8000204603B030BD184603B030BD032003B059
:103D900030BD00BFFCF740BDD0F8B8320BB11B6896
:103DA00018470320704700BF08B5D0F8B8320BB1F0
:103DB0005B689847002008BD38B5044600F2AA2584
:103DC000284600F0B1FB94F8AA12B4F8B032C4F857
:103DD0009832012201F01F039342C4F8942209D0C3
:103DE000022B13D063B1204601F08001BDE83840BA
:103DF000FCF73EBD29462046BDE8384000F0CABA6F
:103E000029462046BDE8384000F024B9294620461E
:103E1000BDE8384000F0EEBA10B5044631B913469B
:103E2000D0F89422032A0DD0002010BD90F89C32C7
:103E3000032BF9D1D0F8B8329B69002BF4D0BDE840
:103E400010401847D0E95712914208D890F89C3298
:103E5000032B0ED0204600F0D9FB002010BD891A9C
:103E60008A4228BF0A46C0F85C11194600F0C6FB1A
:103E7000DAE7D0F8B8321B69002BEBD09847E9E7B6
:103E800070B5044651B91346D0F89422022A11D0D5
:103E900094F8A032012B22D0002070BD90F89C3203
:103EA000032BF9D1D0F8B8325B69002BF4D0BDE810
:103EB00070401847D0E90726B2420D4614D81FD0EB
:103EC00094F89C32032B28D080212046FCF7D0FCAC
:103ED000204600F0A7FB94F8A032012BDCD1002390
:103EE00084F8A032002070BD921BC261194600F018
:103EF0006FFB2B462A4629462046FCF705FDC7E7FF
:103F000083699A42DCD8D0F898229342D8D20A46E4
:103F100000F05EFBC4F89852EBE7D4F8B832DB68E7
:103F2000002BD1D020469847CEE700BFD0F8B8325A
:103F30000021012280F89C224160C0F89412C0F850
:103F4000A412EBB1D0F8BC2270B5044612B15B6884
:103F500003B19847002240231D4611460126204602
:103F6000FCF768FCA4F86461C4F860512B46002299
:103F700080212046FCF75EFCA6842562002070BDEF
:103F80000320704701740020704700BF90F89C2206
:103F900003460421D2B280F89D22002083F89C12AF
:103FA000704700BF90F89C32042B04D190F89D32EA
:103FB000DBB280F89C320020704700BFD0F8B822F6
:103FC0005AB108B590F89C32032B01D0002008BDEF
:103FD000D36923B19847002008BD032070471846D5
:103FE00008BD00BFD0F8B8225AB108B590F89C328D
:103FF000032B01D0002008BD136A23B1984700208D
:1040000008BD03207047184608BD00BFD0F8B8228D
:104010005AB108B590F89C32032B01D0002008BD9E
:10402000536A23B19847002008BD03207047184603
:1040300008BD00BF00207047D0F8B822012180F8E9
:104040009C122AB108B5526801799047002008BD3A
:1040500000207047F0B50C7804F06004202C83B089
:104060000E4605460ED0402C0CD0ACB1802128461F
:10407000FCF7FEFB28460021FCF7FAFB0024204653
:1040800003B0F0BDD5F8B83231469B682846984752
:104090000446204603B0F0BD4B78092BE6D801A2B8
:1040A00052F823F005410008334100086D40000834
:1040B000514100086D400008594100089141000835
:1040C0006D400008AD410008CD4000088E78B04F2B
:1040D000012E3E7000F2398190F89C32022BDAB248
:1040E00000F02181032A00F0FB808021FCF7C0FB57
:1040F00000212846FCF7BCFB39782846FFF754FE20
:104100000324BCE790F89C22013A022A66D8CA88A8
:10411000022A63D1D0F8A4220121C1600AB103228E
:10412000C260022205F10C0128461C4600F042FA4A
:10413000A5E790F89C32013B022B4FD84B88012B0E
:104140009DD10023C5F8A432284600F05FFA96E717
:104150004B88012B93D1F5E78B88002B3ED1CB8880
:10416000002B3BD14E887F2E38D890F89C32032B01
:1041700034D0F1B280F89E12FCF7AAFB284600F07A
:1041800045FA002E00F0FF80022385F89C3276E786
:104190004A88130A0021013BADF80610062B1DD8F2
:1041A000DFE803F06D604D1C1C432700CA88012A1C
:1041B00014D190F89C120229CBB200F28A80002B15
:1041C0003FF454AF0146002341F8083F00F0F2F9F4
:1041D00055E7D0F8B4325B68002B5DD180212846CA
:1041E000FCF746FB28460021FCF742FB204603B0C3
:1041F000F0BD037C002BF1D1D0F8B8320DF10600F0
:104200001B6B984707234370F288002A9CD0BDF8A7
:104210000630002BE2D09A4228BF1A4601462846B3
:10422000ADF8062000F0C6F929E7037C002BD5D1B4
:10423000D0F8B8320DF106005B6B9847E4E7D2B2D4
:10424000052ACBD801A353F822F000BFD3410008C0
:10425000C7420008BB420008AF420008A342000862
:104260008F420008037C002B40F08480D0F8B832E5
:104270000DF106009B6A984702234370C4E7D0F80B
:10428000B432007C1B680DF106019847BCE7D0F8FA
:10429000B4329B69002BA1D0287C0DF10601984710
:1042A000B2E7D0F8B4325B69002BF5D196E7D0F8CD
:1042B000B4321B69002BEFD190E7D0F8B432DB6841
:1042C000002BE9D18AE7D0F8B4329B68002BE3D108
:1042D00084E7032B7FF4CAAE011D00F06BF9CEE634
:1042E000002E3BD0416801293FF42EAFC9B2FFF741
:1042F0005BFD397869602846FFF74EFD06460028C9
:104300003FF422AF80212846FCF7B2FA002128466C
:10431000FCF7AEFA29792846FFF746FD022334461A
:1043200085F89C32ABE6002E3FF40EAF01214160D0
:10433000FFF732FD044600287FF450AF284600F016
:1043400065F9032385F89C3299E68021FCF790FA01
:1043500028460021FCF78CFA032490E602234660ED
:1043600080F89C323146FFF71FFD2846344600F0A6
:104370004DF984E6D0F8B8320DF10600DB6A9847B3
:104380000223437040E7012385F89C3277E600BFA3
:104390006443002038B50B7803F06002402A0D46D4
:1043A00004460BD05B0609D58021FCF761FA204654
:1043B0000021FCF75DFA0025284638BD94F89C32B0
:1043C000013B022B12D82B79012B0FD8D4F8B8322D
:1043D00029469B6820469847EB880546002BEBD181
:1043E0000028E9D1204600F011F9E5E780212046B8
:1043F000DBE700BF70B50B7803F06003202B0D46A0
:1044000004461BD0402B19D003B380212046FCF773
:104410002FFA20460021FCF72BFA002070BD90F8FF
:104420009C32022BDAB253D0032AEED16B88002BD8
:10443000F3D14E066FD1204600F0E8F8D4F8B83238
:10444000294620469B68BDE8704018474B788A880B
:10445000012BD1B2E3D0032B29D0002BD5D190F87A
:104460009C32022BD8B23CD00328CED101F00F03EE
:1044700003EB8303120604EB830341D4B3F86431E6
:10448000002BC2D001F07F03142505FB034505F581
:10449000AA752BB12046FCF707FA00283ED001236D
:1044A0002B6029462046022200F084F8B5E790F8F8
:1044B0009C32022BDAB20BD0032AA6D16B881BB92F
:1044C0004A0601D0EB885BB3204600F09FF8A4E7D2
:1044D0004B069AD0FCF7CCF920468021FCF7C8F9AE
:1044E0009BE7480691D111064CBF04F1140104F575
:1044F000AA71002320460B60022200F05BF88CE7D3
:104500009B8C002B81D001F07F035D1C05EB8505A2
:1045100004EB8505BDE7FCF7B9F98CE72860C0E737
:10452000FCF7A6F9D0E700BF0B7803704B78437017
:10453000CA788B7843EA022343804A790B7943EAAD
:1045400002238380CA798B7943EA0223C3807047B0
:1045500010B580210446FCF78BF920460021BDE808
:104560001040FCF785B900BF08B3037870B4FBB105
:104570000446C0F10106A31914F8015FDBB2002D57
:10458000F9D101335B00032413800B704C70047865
:104590005CB1022300255A1CD2B2CC548D5410F8C1
:1045A000014F0233DBB2002CF5D170BC704770476D
:1045B0000223E8E738B5134602250A46C0E9063368
:1045C000C0F894520021FCF791F9002038BD00BFDB
:1045D00008B513460A460021FCF788F9002008BDFB
:1045E00038B5134603250A46C0E95633C0F894523D
:1045F0000021FCF789F9002038BD00BF08B513463B
:104600000A460021FCF780F9002008BD08B5042106
:104610000023C0F894121A461946FCF767F90020E7
:1046200008BD00BF08B505210023C0F894121A4642
:104630001946FCF769F9002008BD00BF10B5D0F895
:10464000BC4284B1D0F8C0325BB194F80002FF28BC
:1046500007D09B6894F8012221469847FF2384F8ED
:104660000032002010BD032010BD00BF4323038093
:1046700000487047AC000020432303800048704787
:10468000F0000020432303800048704740010020D1
:104690000A230380004870473401002038B5D0F861
:1046A000BC5275B10446FCF73DF9D4F8C032C5F8E8
:1046B0000C02DB68D5F8040205F503719847002069
:1046C00038BD032038BD00BFF8B5D0F8BC7267B361
:1046D00001EB810600EB86060546B3690A466BB915
:1046E000D5F8C0321B690024C7F81442DBB1D7F8F3
:1046F000080207F5047198472046F8BDD0F8C44277
:10470000C1EBC10C04EB8C04D4F844C0B3FBFCF443
:104710000CFB1434002CE3D1B46123462246FCF791
:10472000E5F82046F8BD1846F8BD0320F8BD00BFE7
:104730002DE9F041D0F8BC8282B000278DF80570D9
:10474000ADF80670B8F1000F68D00B7813F0600573
:1047500006460C461FD0202D08D021463046FFF7D4
:10476000F7FE0325284602B0BDE8F081CD888DB361
:104770001B0658D5D0F8C03248789B682A46414677
:104780009847E288072A414628BF072230463D461F
:10479000FFF710FFE6E74B780B2BDED801A252F8AB
:1047A00023F000BF07480008654700085B47000882
:1047B0005B4700085B4700085B4700085B47000851
:1047C0005B4700085B4700085B470008F3470008A9
:1047D000E9470008D0F8C03248789B682A469847D5
:1047E000284602B0BDE8F08190F89C32032BB9D086
:1047F000B3E790F89C32032BAFD101220DF10501F4
:10480000FFF7D8FEAEE790F89C22032AA5D102223A
:104810000DF106011D46FFF7CDFEA3E7032528464F
:1048200002B0BDE8F0814B7888F8003288F8015278
:104830002A464146FFF7D4FE3D4693E738B5044685
:1048400000258121FCF706F8012125872046FCF789
:1048500001F8A4F8785120468221FBF7FBFFD4F839
:10486000BC32E5644BB1D4F8C0325B689847D4F8E9
:10487000BC02FCF75FF8C4F8BC52002038BD00BF92
:104880002DE9F04104464FF40770FCF74FF8054658
:1048900000284AD0237CC4F8BC0293B34023812172
:1048A000012602222046FBF7C5FF2687314640231A
:1048B00002222046FBF7BEFF102303228221A4F828
:1048C0007861A4F84E3020460823FBF7B3FFD4F8F4
:1048D000C0324FF001081B68A4F84C8000279847AD
:1048E000C5F81472C5F81872267CD5F80422414622
:1048F00020469EB94FF40073FCF706F83046BDE839
:10490000F0814FF400738121012602222046FBF73B
:1049100091FF268731464FF40073C9E740233E4696
:10492000FBF7F2FF3046BDE8F0810226C4F8BC0276
:104930003046BDE8F08100BF19B1C0F8C0120020B8
:1049400070470320704700BFD0F8BC322BB1C3F8CA
:104950000812C3F81022002070470320704700BFE0
:10496000D0F8BC321BB1C3F80412002070470320FA
:10497000704700BFD0F8BC2210B58AB1047CD2F8D1
:10498000042234B1402301210024FBF7BDFF20465F
:1049900010BD4FF400730121FBF7B6FF204610BD98
:1049A0000324204610BD00BF2DE9F04100248AB049
:1049B000CDE90544CDE90744414B009409941A6BB5
:1049C000404D414EDFF8088142F004021A631A6B31
:1049D00002F004020092009A01941A6B42F08002E5
:1049E0001A631A6B02F080020192019A02941A6B08
:1049F00042F001021A631A6B02F001020292029A5B
:104A000003941A6B42F002021A631A6B02F002025C
:104A10000392039A04941A6B42F008021A631B6B08
:104A200003F008030493224628460621049BFDF761
:104A300035FF224630464FF4A451FDF72FFF2246A2
:104A400040464FF40041FDF729FF012705A92846FC
:104A50000623CDE90537CDE90744FDF70DFE05A98D
:104A600030464FF4A4530593CDE906740894FDF73E
:104A700003FE404605A94FF400430593CDE90674B3
:104A80000894FDF7F9FD304605A94FF4006305933E
:104A9000CDE90644FDF7F0FD05A904230B48059375
:104AA000CDE90644FDF7E8FD4FF4007305A928465B
:104AB000CDE906440593FDF7DFFD0AB0BDE8F081BE
:104AC000003802400004024000080240000C02408E
:104AD000000002400B480C4908B50C4B03604FF432
:104AE00080420023C0E90233C0E90533C0E907333F
:104AF00041600261FDF76EFF00B908BDBDE80840E6
:104B0000FBF74CBD905C0020A086010000580040DF
:104B100070B50268184B88B000249A42CDE903446E
:104B2000CDE90544079401D008B070BD134D019440
:104B30002B6B134843F002032B632B6B03F0020330
:104B400001934FF4406303931222012304920593CF
:104B50000322042303A9CDE90623019EFDF78CFD62
:104B600002942B6C43F480032B642B6C03F48003BE
:104B70000293029B08B070BD00580040003802400C
:104B8000000402400E480F4B10B54FF48021036023
:104B90004FF4827400230A22C0E90233C0E90433CF
:104BA000C0E90733C0E9093344608161C262FDF79F
:104BB000D5FF00B910BDBDE81040FBF7EFBC00BF4A
:104BC000E45C002000300140F0B50268224B89B05F
:104BD00000249A42CDE90344CDE90544079401D06D
:104BE00009B0F0BD03F5843300945A6C1B4842F4BD
:104BF00080525A645A6C02F480520092009A0194D6
:104C00001A6B42F001021A631A6B02F00102019260
:104C1000019A02941A6B42F002021A631B6B05940C
:104C200003F002030293022710230326052503A99C
:104C3000CDE90337029ACDE90665FDF71DFD38235E
:104C40000748049703A9CDE9066505940393FDF78A
:104C500013FD09B0F0BD00BF00300140000002406C
:104C600000040240DFF834D00D480E490E4A0023FC
:104C700002E0D458C4500433C4188C42F9D30B4A10
:104C80000B4C002301E013600432A242FBD3FEF779
:104C900049F900F011F8FBF769FC704700000220A9
:104CA0000000002084010020BC4D00088401002089
:104CB0003C5D0020FEE7000070B50D4D0D4C641BFF
:104CC000A4100026A64209D10B4D0C4C00F018F898
:104CD000641BA4100026A64205D170BD55F8043B04
:104CE00098470136EEE755F8043B98470136F2E75E
:104CF000B44D0008B44D0008B44D0008B84D00088C
:104D0000F8B500BFF8BC08BC9E467047F8B500BFB8
:084D1000F8BC08BC9E46704788
:104D1800344D0008A1050008000000000000000054
:104D2800800000000000000000000000646566616B
:104D3800756C745461736B000003010353544D691F
:104D480063726F656C656374726F6E69637300007C
:104D580053544D3332205669727475616C20436F19
:104D68006D506F727400000043444320436F6E66B9
:104D78006967000043444320496E74657266616345
:104D880065000000000000000000000001020304AC
:104D980006070809000000000102030449444C45C5
:044DA8000000000007
:084DAC0054B4FF7F0100000078
:044DB400B50100083D
:044DB800910100085D
:104DBC003909000845090008C9090008E509000877
:104DCC0081090008010A00081D0A000812010002EE
:104DDC00020200408304405700020102030100005C
:104DEC00040309041A030000000000000000000086
:104DFC0000000000000000000000000000000000A7
:104E0C00610A0008390A00083D0A0008450A000832
:104E1C00410A000801000000100000000024F4000A
:104E2C00AAAAAAAA814800083D48000831470008F0
:104E3C00000000003D460008C94600089D460008D9
:104E4C00000000000000000000000000794600088F
:104E5C006D4600088546000891460008090243008B
:104E6C00020100C032090400000102020100052405
:104E7C00001001052401000104240202052406008F
:104E8C00010705820308001009040100020A000052
:104E9C0000070501024000000705810240000000E8
:104EAC0009024300020100C03209040000010202A1
:104EBC000100052400100105240100010424020254
:104ECC0005240600010705820308001009040100EF
:104EDC00020A00000007050102000200070581021A
:104EEC00000200000A060002000000400100000061
:104EFC0009074300020104C0320904000001020248
:104F0C000100052400100105240100010424020203
:104F1C00052406000107058203080010090401009E
:104F2C00020A00000007050102400000070581028B
:044F3C004000000031
:0400000508004C653E
:00000001FF
